{
  "address": "0x0dd28e1C311f5B89A3070009CF6842cA28Cb8943",
  "abi": [
    {
      "inputs": [
        {
          "internalType": "address",
          "name": "nftAddress",
          "type": "address"
        },
        {
          "internalType": "address",
          "name": "_authSigner",
          "type": "address"
        }
      ],
      "stateMutability": "nonpayable",
      "type": "constructor"
    },
    {
      "anonymous": false,
      "inputs": [
        {
          "indexed": true,
          "internalType": "address",
          "name": "depositor",
          "type": "address"
        },
        {
          "indexed": true,
          "internalType": "uint256",
          "name": "tokenId",
          "type": "uint256"
        },
        {
          "indexed": false,
          "internalType": "bool",
          "name": "hasPlayerId",
          "type": "bool"
        },
        {
          "indexed": false,
          "internalType": "uint256",
          "name": "playerId",
          "type": "uint256"
        }
      ],
      "name": "OnDtkHeroDeposited",
      "type": "event"
    },
    {
      "anonymous": false,
      "inputs": [
        {
          "indexed": true,
          "internalType": "address",
          "name": "erc721",
          "type": "address"
        },
        {
          "indexed": true,
          "internalType": "address",
          "name": "operator",
          "type": "address"
        },
        {
          "indexed": false,
          "internalType": "address",
          "name": "from",
          "type": "address"
        },
        {
          "indexed": true,
          "internalType": "uint256",
          "name": "tokenId",
          "type": "uint256"
        }
      ],
      "name": "OnERC721Received",
      "type": "event"
    },
    {
      "anonymous": false,
      "inputs": [
        {
          "indexed": true,
          "internalType": "address",
          "name": "previousOwner",
          "type": "address"
        },
        {
          "indexed": true,
          "internalType": "address",
          "name": "newOwner",
          "type": "address"
        }
      ],
      "name": "OwnershipTransferred",
      "type": "event"
    },
    {
      "anonymous": false,
      "inputs": [
        {
          "indexed": true,
          "internalType": "address",
          "name": "erc721Address",
          "type": "address"
        },
        {
          "indexed": true,
          "internalType": "address",
          "name": "to",
          "type": "address"
        },
        {
          "indexed": true,
          "internalType": "uint256",
          "name": "tokenId",
          "type": "uint256"
        }
      ],
      "name": "TransferERC721",
      "type": "event"
    },
    {
      "anonymous": false,
      "inputs": [
        {
          "indexed": true,
          "internalType": "address",
          "name": "operator",
          "type": "address"
        },
        {
          "indexed": false,
          "internalType": "uint256",
          "name": "tokenId",
          "type": "uint256"
        },
        {
          "indexed": false,
          "internalType": "uint256",
          "name": "nonce",
          "type": "uint256"
        }
      ],
      "name": "WithdrawDTKHero",
      "type": "event"
    },
    {
      "inputs": [],
      "name": "authSigner",
      "outputs": [
        {
          "internalType": "address",
          "name": "",
          "type": "address"
        }
      ],
      "stateMutability": "view",
      "type": "function"
    },
    {
      "inputs": [
        {
          "internalType": "address",
          "name": "walletAddress",
          "type": "address"
        }
      ],
      "name": "currentNonce",
      "outputs": [
        {
          "internalType": "uint256",
          "name": "",
          "type": "uint256"
        }
      ],
      "stateMutability": "view",
      "type": "function"
    },
    {
      "inputs": [
        {
          "internalType": "uint256",
          "name": "tokenId",
          "type": "uint256"
        }
      ],
      "name": "depositInfoOfDtkHero",
      "outputs": [
        {
          "components": [
            {
              "internalType": "address",
              "name": "depositor",
              "type": "address"
            },
            {
              "internalType": "bool",
              "name": "hasPlayerId",
              "type": "bool"
            },
            {
              "internalType": "uint256",
              "name": "playerId",
              "type": "uint256"
            }
          ],
          "internalType": "struct DepositInfo",
          "name": "depositInfo",
          "type": "tuple"
        }
      ],
      "stateMutability": "view",
      "type": "function"
    },
    {
      "inputs": [],
      "name": "getDtkHeroAddress",
      "outputs": [
        {
          "internalType": "address",
          "name": "",
          "type": "address"
        }
      ],
      "stateMutability": "view",
      "type": "function"
    },
    {
      "inputs": [
        {
          "internalType": "address",
          "name": "operator",
          "type": "address"
        },
        {
          "internalType": "address",
          "name": "from",
          "type": "address"
        },
        {
          "internalType": "uint256",
          "name": "tokenId",
          "type": "uint256"
        },
        {
          "internalType": "bytes",
          "name": "data",
          "type": "bytes"
        }
      ],
      "name": "onERC721Received",
      "outputs": [
        {
          "internalType": "bytes4",
          "name": "",
          "type": "bytes4"
        }
      ],
      "stateMutability": "nonpayable",
      "type": "function"
    },
    {
      "inputs": [],
      "name": "owner",
      "outputs": [
        {
          "internalType": "address",
          "name": "",
          "type": "address"
        }
      ],
      "stateMutability": "view",
      "type": "function"
    },
    {
      "inputs": [],
      "name": "renounceOwnership",
      "outputs": [],
      "stateMutability": "nonpayable",
      "type": "function"
    },
    {
      "inputs": [
        {
          "internalType": "address",
          "name": "erc721Address",
          "type": "address"
        },
        {
          "internalType": "address",
          "name": "to",
          "type": "address"
        },
        {
          "internalType": "uint256",
          "name": "tokenId",
          "type": "uint256"
        }
      ],
      "name": "transferERC721",
      "outputs": [],
      "stateMutability": "nonpayable",
      "type": "function"
    },
    {
      "inputs": [
        {
          "internalType": "address",
          "name": "newOwner",
          "type": "address"
        }
      ],
      "name": "transferOwnership",
      "outputs": [],
      "stateMutability": "nonpayable",
      "type": "function"
    },
    {
      "inputs": [
        {
          "internalType": "uint256",
          "name": "tokenId",
          "type": "uint256"
        },
        {
          "internalType": "uint256",
          "name": "_nonce",
          "type": "uint256"
        },
        {
          "internalType": "bytes",
          "name": "sig",
          "type": "bytes"
        }
      ],
      "name": "withdrawDTKHero",
      "outputs": [],
      "stateMutability": "nonpayable",
      "type": "function"
    }
  ],
  "transactionHash": "0xbea48e6fb543cc62e3796f57f0bef3d32a3bfd8f83008f82511577031950bd98",
  "args": [
    "0x2179Bf678f133ee45574888561Abe1Ec414a7BAF",
    "0x7d14F396d347C960bC2774141D51DA59Be408F71"
  ],
  "numDeployments": 2,
  "solcInputHash": "5148b691ffb375ece70698b3942399ca",
  "bytecode": "0x60a060405234801561001057600080fd5b5060405161110e38038061110e83398101604081905261002f9161016c565b61003833610100565b6001600160a01b0382166100935760405162461bcd60e51b815260206004820152601560248201527f496e76616c696420546f6b656e2041646472657373000000000000000000000060448201526064015b60405180910390fd5b6001600160a01b0381166100d85760405162461bcd60e51b815260206004820152600c60248201526b24b73b30b634b21030b2323960a11b604482015260640161008a565b6001600160a01b03918216608052600280546001600160a01b0319169190921617905561019f565b600080546001600160a01b038381166001600160a01b0319831681178455604051919092169283917f8be0079c531659141344cd1fd0a4f28419497f9722a3daafe3b4186f6b6457e09190a35050565b80516001600160a01b038116811461016757600080fd5b919050565b6000806040838503121561017f57600080fd5b61018883610150565b915061019660208401610150565b90509250929050565b608051610f386101d6600039600081816101940152818161024601528181610366015281816103ee01526107180152610f386000f3fe608060405234801561001057600080fd5b506004361061009d5760003560e01c80636437ecfc116100665780636437ecfc146101cc578063715018a6146102035780638da5cb5b1461020b578063b42348ac1461021c578063f2fde38b1461022f57600080fd5b8062c700b9146100a2578063150b7a021461013e5780631aca63761461016a5780632fc2aab21461017f57806347b7856f14610192575b600080fd5b61010c6100b0366004610b1e565b6040805160608082018352600080835260208084018290529284018190529384526001808352938390208351918201845280546001600160a01b0381168352600160a01b900460ff161515928201929092529201549082015290565b6040805182516001600160a01b0316815260208084015115159082015291810151908201526060015b60405180910390f35b61015161014c366004610bf6565b610242565b6040516001600160e01b03199091168152602001610135565b61017d610178366004610c5e565b61035c565b005b61017d61018d366004610c9a565b61050d565b7f00000000000000000000000000000000000000000000000000000000000000005b6040516001600160a01b039091168152602001610135565b6101f56101da366004610cea565b6001600160a01b031660009081526003602052604090205490565b604051908152602001610135565b61017d6107cf565b6000546001600160a01b03166101b4565b6002546101b4906001600160a01b031681565b61017d61023d366004610cea565b6107e3565b60007f00000000000000000000000000000000000000000000000000000000000000006001600160a01b03163303610307578151151560006102838461085c565b60008681526001602081815260409283902080546001600160a01b038d166001600160a81b03199091168117600160a01b8915159081029190911783559382018690558451938452918301859052939450889290917fad915c2b1bb4f9cdc66dc2d9905c98ac6cbc1bd5ee84f2f0de71a55d33951894910160405180910390a35050505b604080516001600160a01b0386811682529151859288169133917f2658be41a741c90fc1ac80205f19b27bfb6600f1e4c0f41e2f3ff6c615aa95cd9181900360200190a4630a85bd0160e11b95945050505050565b6103646108e1565b7f00000000000000000000000000000000000000000000000000000000000000006001600160a01b0316836001600160a01b03160361045057600081815260016020819052604080832080546001600160a81b0319168155918201929092559051632142170760e11b81523060048201526001600160a01b038481166024830152604482018490527f000000000000000000000000000000000000000000000000000000000000000016906342842e0e90606401600060405180830381600087803b15801561043257600080fd5b505af1158015610446573d6000803e3d6000fd5b50505050506104c7565b604051635c46a7ef60e11b81523060048201526001600160a01b03838116602483015260448201839052608060648301526000608483015284169063b88d4fde9060a401600060405180830381600087803b1580156104ae57600080fd5b505af11580156104c2573d6000803e3d6000fd5b505050505b80826001600160a01b0316846001600160a01b03167f351b8d13789e4d8d2717631559251955685881a31494dd0b8b19b4ef8530bb6d60405160405180910390a4505050565b8233600082815260016020526040902054849084906001600160a01b031661057c5760405162461bcd60e51b815260206004820181905260248201527f546f6b656e20686173206e6f74206265656e206465706f73697465642079657460448201526064015b60405180910390fd5b6000848152600160205260409020546001600160a01b038481169116146105d45760405162461bcd60e51b815260206004820152600c60248201526b155b985d5d1a1bdc9a5e995960a21b6044820152606401610573565b816105f4846001600160a01b031660009081526003602052604090205490565b146106315760405162461bcd60e51b815260206004820152600d60248201526c496e76616c6964206e6f6e636560981b6044820152606401610573565b610656604051806060016040528060268152602001610edd602691398486858561093b565b6106965760405162461bcd60e51b8152602060048201526011602482015270496e76616c6964207369676e617475726560781b6044820152606401610573565b600087815260016020818152604080842080546001600160a81b0319168155808401859055338552600390925283208054919390916106d6908490610d22565b909155505060408051635c46a7ef60e11b8152306004820152336024820152604481018a90526080606482015260006084820181905291516001600160a01b037f0000000000000000000000000000000000000000000000000000000000000000169263b88d4fde9260a4808201939182900301818387803b15801561075b57600080fd5b505af115801561076f573d6000803e3d6000fd5b5050505061077a3390565b6001600160a01b03167f43b453d8d1a78d05fdd6b463c4ecc642e03ec902fcd7d7b64469fba191bdf9af89896040516107bd929190918252602082015260400190565b60405180910390a25050505050505050565b6107d76108e1565b6107e160006109e8565b565b6107eb6108e1565b6001600160a01b0381166108505760405162461bcd60e51b815260206004820152602660248201527f4f776e61626c653a206e6577206f776e657220697320746865207a65726f206160448201526564647265737360d01b6064820152608401610573565b610859816109e8565b50565b60008060005b83518110156108da57610876816001610d22565b84516108829190610d35565b61088d906008610d48565b610898906002610e43565b8482815181106108aa576108aa610e4f565b01602001516108bc919060f81c610d48565b6108c69083610d22565b9150806108d281610e65565b915050610862565b5092915050565b6000546001600160a01b031633146107e15760405162461bcd60e51b815260206004820181905260248201527f4f776e61626c653a2063616c6c6572206973206e6f7420746865206f776e65726044820152606401610573565b6000806109ba873088888860405160200161095a959493929190610e7e565b60408051601f1981840301815282825280516020918201207f19457468657265756d205369676e6564204d6573736167653a0a33320000000084830152603c8085019190915282518085039091018152605c909301909152815191012090565b6002549091506001600160a01b03166109d38285610a38565b6001600160a01b031614979650505050505050565b600080546001600160a01b038381166001600160a01b0319831681178455604051919092169283917f8be0079c531659141344cd1fd0a4f28419497f9722a3daafe3b4186f6b6457e09190a35050565b600080600080610a4785610ab8565b6040805160008152602081018083528b905260ff8516918101919091526060810183905260808101829052929550909350915060019060a0016020604051602081039080840390855afa158015610aa2573d6000803e3d6000fd5b5050506020604051035193505050505b92915050565b60008060008351604114610b025760405162461bcd60e51b8152602060048201526011602482015270496e76616c6964207369676e617475726560781b6044820152606401610573565b5050506020810151604082015160609092015160001a92909190565b600060208284031215610b3057600080fd5b5035919050565b80356001600160a01b0381168114610b4e57600080fd5b919050565b634e487b7160e01b600052604160045260246000fd5b600082601f830112610b7a57600080fd5b813567ffffffffffffffff80821115610b9557610b95610b53565b604051601f8301601f19908116603f01168101908282118183101715610bbd57610bbd610b53565b81604052838152866020858801011115610bd657600080fd5b836020870160208301376000602085830101528094505050505092915050565b60008060008060808587031215610c0c57600080fd5b610c1585610b37565b9350610c2360208601610b37565b925060408501359150606085013567ffffffffffffffff811115610c4657600080fd5b610c5287828801610b69565b91505092959194509250565b600080600060608486031215610c7357600080fd5b610c7c84610b37565b9250610c8a60208501610b37565b9150604084013590509250925092565b600080600060608486031215610caf57600080fd5b8335925060208401359150604084013567ffffffffffffffff811115610cd457600080fd5b610ce086828701610b69565b9150509250925092565b600060208284031215610cfc57600080fd5b610d0582610b37565b9392505050565b634e487b7160e01b600052601160045260246000fd5b80820180821115610ab257610ab2610d0c565b81810381811115610ab257610ab2610d0c565b8082028115828204841417610ab257610ab2610d0c565b600181815b80851115610d9a578160001904821115610d8057610d80610d0c565b80851615610d8d57918102915b93841c9390800290610d64565b509250929050565b600082610db157506001610ab2565b81610dbe57506000610ab2565b8160018114610dd45760028114610dde57610dfa565b6001915050610ab2565b60ff841115610def57610def610d0c565b50506001821b610ab2565b5060208310610133831016604e8410600b8410161715610e1d575081810a610ab2565b610e278383610d5f565b8060001904821115610e3b57610e3b610d0c565b029392505050565b6000610d058383610da2565b634e487b7160e01b600052603260045260246000fd5b600060018201610e7757610e77610d0c565b5060010190565b6000865160005b81811015610e9f576020818a018101518583015201610e85565b506bffffffffffffffffffffffff19606097881b8116919093019081529490951b166014840152602883019190915260488201526068019291505056fe776974686472617744544b4865726f2875696e743235362c75696e743235362c627974657329a26469706673582212204ca914410c9496dd0c779cfa9be2b60d76c4e8e0ad71ee94ada2e7349c5d4d6d64736f6c63430008110033",
  "devdoc": {
    "kind": "dev",
    "methods": {
      "owner()": {
        "details": "Returns the address of the current owner."
      },
      "renounceOwnership()": {
        "details": "Leaves the contract without owner. It will not be possible to call `onlyOwner` functions anymore. Can only be called by the current owner. NOTE: Renouncing ownership will leave the contract without an owner, thereby removing any functionality that is only available to the owner."
      },
      "transferOwnership(address)": {
        "details": "Transfers ownership of the contract to a new account (`newOwner`). Can only be called by the current owner."
      }
    },
    "version": 1
  },
  "userdoc": {
    "kind": "user",
    "methods": {},
    "version": 1
  },
  "storageLayout": {
    "storage": [
      {
        "astId": 7,
        "contract": "contracts/DTKHeroControlPool.sol:DTKHeroControlPool",
        "label": "_owner",
        "offset": 0,
        "slot": "0",
        "type": "t_address"
      },
      {
        "astId": 3578,
        "contract": "contracts/DTKHeroControlPool.sol:DTKHeroControlPool",
        "label": "_depositedDtkHero",
        "offset": 0,
        "slot": "1",
        "type": "t_mapping(t_uint256,t_struct(DepositInfo)3530_storage)"
      },
      {
        "astId": 3580,
        "contract": "contracts/DTKHeroControlPool.sol:DTKHeroControlPool",
        "label": "authSigner",
        "offset": 0,
        "slot": "2",
        "type": "t_address"
      },
      {
        "astId": 3584,
        "contract": "contracts/DTKHeroControlPool.sol:DTKHeroControlPool",
        "label": "sigNonces",
        "offset": 0,
        "slot": "3",
        "type": "t_mapping(t_address,t_uint256)"
      }
    ],
    "types": {
      "t_address": {
        "encoding": "inplace",
        "label": "address",
        "numberOfBytes": "20"
      },
      "t_bool": {
        "encoding": "inplace",
        "label": "bool",
        "numberOfBytes": "1"
      },
      "t_mapping(t_address,t_uint256)": {
        "encoding": "mapping",
        "key": "t_address",
        "label": "mapping(address => uint256)",
        "numberOfBytes": "32",
        "value": "t_uint256"
      },
      "t_mapping(t_uint256,t_struct(DepositInfo)3530_storage)": {
        "encoding": "mapping",
        "key": "t_uint256",
        "label": "mapping(uint256 => struct DepositInfo)",
        "numberOfBytes": "32",
        "value": "t_struct(DepositInfo)3530_storage"
      },
      "t_struct(DepositInfo)3530_storage": {
        "encoding": "inplace",
        "label": "struct DepositInfo",
        "members": [
          {
            "astId": 3525,
            "contract": "contracts/DTKHeroControlPool.sol:DTKHeroControlPool",
            "label": "depositor",
            "offset": 0,
            "slot": "0",
            "type": "t_address"
          },
          {
            "astId": 3527,
            "contract": "contracts/DTKHeroControlPool.sol:DTKHeroControlPool",
            "label": "hasPlayerId",
            "offset": 20,
            "slot": "0",
            "type": "t_bool"
          },
          {
            "astId": 3529,
            "contract": "contracts/DTKHeroControlPool.sol:DTKHeroControlPool",
            "label": "playerId",
            "offset": 0,
            "slot": "1",
            "type": "t_uint256"
          }
        ],
        "numberOfBytes": "64"
      },
      "t_uint256": {
        "encoding": "inplace",
        "label": "uint256",
        "numberOfBytes": "32"
      }
    }
  }
}