{
  "address": "0x86b6aBdcA41D6501927ae883b8936e11baA3bef6",
  "abi": [
    {
      "inputs": [
        {
          "internalType": "address",
          "name": "nftAddress",
          "type": "address"
        },
        {
          "internalType": "address",
          "name": "_authSigner",
          "type": "address"
        }
      ],
      "stateMutability": "nonpayable",
      "type": "constructor"
    },
    {
      "anonymous": false,
      "inputs": [
        {
          "indexed": true,
          "internalType": "address",
          "name": "depositor",
          "type": "address"
        },
        {
          "indexed": true,
          "internalType": "uint256",
          "name": "tokenId",
          "type": "uint256"
        },
        {
          "indexed": false,
          "internalType": "bool",
          "name": "hasPlayerId",
          "type": "bool"
        },
        {
          "indexed": false,
          "internalType": "uint256",
          "name": "playerId",
          "type": "uint256"
        }
      ],
      "name": "OnDtkHeroDeposited",
      "type": "event"
    },
    {
      "anonymous": false,
      "inputs": [
        {
          "indexed": true,
          "internalType": "address",
          "name": "erc721",
          "type": "address"
        },
        {
          "indexed": true,
          "internalType": "address",
          "name": "operator",
          "type": "address"
        },
        {
          "indexed": false,
          "internalType": "address",
          "name": "from",
          "type": "address"
        },
        {
          "indexed": true,
          "internalType": "uint256",
          "name": "tokenId",
          "type": "uint256"
        }
      ],
      "name": "OnERC721Received",
      "type": "event"
    },
    {
      "anonymous": false,
      "inputs": [
        {
          "indexed": true,
          "internalType": "address",
          "name": "previousOwner",
          "type": "address"
        },
        {
          "indexed": true,
          "internalType": "address",
          "name": "newOwner",
          "type": "address"
        }
      ],
      "name": "OwnershipTransferred",
      "type": "event"
    },
    {
      "anonymous": false,
      "inputs": [
        {
          "indexed": true,
          "internalType": "address",
          "name": "erc721Address",
          "type": "address"
        },
        {
          "indexed": true,
          "internalType": "address",
          "name": "to",
          "type": "address"
        },
        {
          "indexed": true,
          "internalType": "uint256",
          "name": "tokenId",
          "type": "uint256"
        }
      ],
      "name": "TransferERC721",
      "type": "event"
    },
    {
      "anonymous": false,
      "inputs": [
        {
          "indexed": true,
          "internalType": "address",
          "name": "operator",
          "type": "address"
        },
        {
          "indexed": false,
          "internalType": "uint256",
          "name": "tokenId",
          "type": "uint256"
        },
        {
          "indexed": false,
          "internalType": "uint256",
          "name": "nonce",
          "type": "uint256"
        }
      ],
      "name": "WithdrawDTKHero",
      "type": "event"
    },
    {
      "inputs": [],
      "name": "authSigner",
      "outputs": [
        {
          "internalType": "address",
          "name": "",
          "type": "address"
        }
      ],
      "stateMutability": "view",
      "type": "function"
    },
    {
      "inputs": [
        {
          "internalType": "address",
          "name": "walletAddress",
          "type": "address"
        }
      ],
      "name": "currentNonce",
      "outputs": [
        {
          "internalType": "uint256",
          "name": "",
          "type": "uint256"
        }
      ],
      "stateMutability": "view",
      "type": "function"
    },
    {
      "inputs": [
        {
          "internalType": "uint256",
          "name": "tokenId",
          "type": "uint256"
        }
      ],
      "name": "depositInfoOfDtkHero",
      "outputs": [
        {
          "components": [
            {
              "internalType": "address",
              "name": "depositor",
              "type": "address"
            },
            {
              "internalType": "bool",
              "name": "hasPlayerId",
              "type": "bool"
            },
            {
              "internalType": "uint256",
              "name": "playerId",
              "type": "uint256"
            }
          ],
          "internalType": "struct DepositInfo",
          "name": "depositInfo",
          "type": "tuple"
        }
      ],
      "stateMutability": "view",
      "type": "function"
    },
    {
      "inputs": [],
      "name": "getDtkHeroAddress",
      "outputs": [
        {
          "internalType": "address",
          "name": "",
          "type": "address"
        }
      ],
      "stateMutability": "view",
      "type": "function"
    },
    {
      "inputs": [
        {
          "internalType": "address",
          "name": "operator",
          "type": "address"
        },
        {
          "internalType": "address",
          "name": "from",
          "type": "address"
        },
        {
          "internalType": "uint256",
          "name": "tokenId",
          "type": "uint256"
        },
        {
          "internalType": "bytes",
          "name": "data",
          "type": "bytes"
        }
      ],
      "name": "onERC721Received",
      "outputs": [
        {
          "internalType": "bytes4",
          "name": "",
          "type": "bytes4"
        }
      ],
      "stateMutability": "nonpayable",
      "type": "function"
    },
    {
      "inputs": [],
      "name": "owner",
      "outputs": [
        {
          "internalType": "address",
          "name": "",
          "type": "address"
        }
      ],
      "stateMutability": "view",
      "type": "function"
    },
    {
      "inputs": [],
      "name": "renounceOwnership",
      "outputs": [],
      "stateMutability": "nonpayable",
      "type": "function"
    },
    {
      "inputs": [
        {
          "internalType": "address",
          "name": "erc721Address",
          "type": "address"
        },
        {
          "internalType": "address",
          "name": "to",
          "type": "address"
        },
        {
          "internalType": "uint256",
          "name": "tokenId",
          "type": "uint256"
        }
      ],
      "name": "transferERC721",
      "outputs": [],
      "stateMutability": "nonpayable",
      "type": "function"
    },
    {
      "inputs": [
        {
          "internalType": "address",
          "name": "newOwner",
          "type": "address"
        }
      ],
      "name": "transferOwnership",
      "outputs": [],
      "stateMutability": "nonpayable",
      "type": "function"
    },
    {
      "inputs": [
        {
          "internalType": "address",
          "name": "owner",
          "type": "address"
        }
      ],
      "name": "undepositedTokensOfOwner",
      "outputs": [
        {
          "internalType": "uint256[]",
          "name": "",
          "type": "uint256[]"
        }
      ],
      "stateMutability": "view",
      "type": "function"
    },
    {
      "inputs": [
        {
          "internalType": "uint256",
          "name": "tokenId",
          "type": "uint256"
        },
        {
          "internalType": "uint256",
          "name": "_nonce",
          "type": "uint256"
        },
        {
          "internalType": "bytes",
          "name": "sig",
          "type": "bytes"
        }
      ],
      "name": "withdrawDTKHero",
      "outputs": [],
      "stateMutability": "nonpayable",
      "type": "function"
    }
  ],
  "transactionHash": "0xc8b2f63f672b540e218dcbf7ac627e07718f0a999276eba900de89cc87934aeb",
  "args": [
    "0x35AB13313d581e3e92b0Bcb82524634435F2734c",
    "0x7d14F396d347C960bC2774141D51DA59Be408F71"
  ],
  "numDeployments": 3,
  "solcInputHash": "0f468260207d77554fd38820496d2831",
  "bytecode": "0x60a06040523480156200001157600080fd5b506040516200157638038062001576833981016040819052620000349162000178565b6200003f336200010b565b6001600160a01b0382166200009b5760405162461bcd60e51b815260206004820152601560248201527f496e76616c696420546f6b656e2041646472657373000000000000000000000060448201526064015b60405180910390fd5b6001600160a01b038116620000e25760405162461bcd60e51b815260206004820152600c60248201526b24b73b30b634b21030b2323960a11b604482015260640162000092565b6001600160a01b03918216608052600280546001600160a01b03191691909216179055620001b0565b600080546001600160a01b038381166001600160a01b0319831681178455604051919092169283917f8be0079c531659141344cd1fd0a4f28419497f9722a3daafe3b4186f6b6457e09190a35050565b80516001600160a01b03811681146200017357600080fd5b919050565b600080604083850312156200018c57600080fd5b62000197836200015b565b9150620001a7602084016200015b565b90509250929050565b608051611379620001fd6000396000818161019f01528181610279015281816103920152818161041a0152818161073901528181610807015281816108cb015261096a01526113796000f3fe608060405234801561001057600080fd5b50600436106100a85760003560e01c80635b27d234116100715780635b27d234146101d75780636437ecfc146101f7578063715018a61461022e5780638da5cb5b14610236578063b42348ac14610247578063f2fde38b1461025a57600080fd5b8062c700b9146100ad578063150b7a02146101495780631aca6376146101755780632fc2aab21461018a57806347b7856f1461019d575b600080fd5b6101176100bb366004610e07565b6040805160608082018352600080835260208084018290529284018190529384526001808352938390208351918201845280546001600160a01b0381168352600160a01b900460ff161515928201929092529201549082015290565b6040805182516001600160a01b0316815260208084015115159082015291810151908201526060015b60405180910390f35b61015c610157366004610eec565b61026d565b6040516001600160e01b03199091168152602001610140565b610188610183366004610f58565b610388565b005b610188610198366004610f99565b610539565b7f00000000000000000000000000000000000000000000000000000000000000005b6040516001600160a01b039091168152602001610140565b6101ea6101e5366004610fe9565b6107e2565b604051610140919061100d565b610220610205366004610fe9565b6001600160a01b031660009081526003602052604090205490565b604051908152602001610140565b610188610ab8565b6000546001600160a01b03166101bf565b6002546101bf906001600160a01b031681565b610188610268366004610fe9565b610acc565b60006001600160a01b037f0000000000000000000000000000000000000000000000000000000000000000163303610332578151151560006102ae84610b45565b60008681526001602081815260409283902080546001600160a01b038d166001600160a81b03199091168117600160a01b8915159081029190911783559382018690558451938452918301859052939450889290917fad915c2b1bb4f9cdc66dc2d9905c98ac6cbc1bd5ee84f2f0de71a55d33951894910160405180910390a35050505b6040516001600160a01b03858116825284919087169033907f2658be41a741c90fc1ac80205f19b27bfb6600f1e4c0f41e2f3ff6c615aa95cd9060200160405180910390a4630a85bd0160e11b95945050505050565b610390610bca565b7f00000000000000000000000000000000000000000000000000000000000000006001600160a01b0316836001600160a01b03160361047c57600081815260016020819052604080832080546001600160a81b0319168155918201929092559051632142170760e11b81523060048201526001600160a01b038481166024830152604482018490527f000000000000000000000000000000000000000000000000000000000000000016906342842e0e90606401600060405180830381600087803b15801561045e57600080fd5b505af1158015610472573d6000803e3d6000fd5b50505050506104f3565b604051635c46a7ef60e11b81523060048201526001600160a01b03838116602483015260448201839052608060648301526000608483015284169063b88d4fde9060a401600060405180830381600087803b1580156104da57600080fd5b505af11580156104ee573d6000803e3d6000fd5b505050505b80826001600160a01b0316846001600160a01b03167f351b8d13789e4d8d2717631559251955685881a31494dd0b8b19b4ef8530bb6d60405160405180910390a4505050565b60008381526001602052604090205483903390849084906001600160a01b03166105aa5760405162461bcd60e51b815260206004820181905260248201527f546f6b656e20686173206e6f74206265656e206465706f73697465642079657460448201526064015b60405180910390fd5b6000848152600160205260409020546001600160a01b038481169116146106025760405162461bcd60e51b815260206004820152600c60248201526b155b985d5d1a1bdc9a5e995960a21b60448201526064016105a1565b81610622846001600160a01b031660009081526003602052604090205490565b1461065f5760405162461bcd60e51b815260206004820152600d60248201526c496e76616c6964206e6f6e636560981b60448201526064016105a1565b61068460405180606001604052806026815260200161131e6026913984868585610c24565b6106c45760405162461bcd60e51b8152602060048201526011602482015270496e76616c6964207369676e617475726560781b60448201526064016105a1565b600087815260016020818152604080842080546001600160a81b031916815580840185905533855260039092528320805491939091610704908490611067565b9091555050604051635c46a7ef60e11b81523060048201523360248201526044810189905260806064820152600060848201527f00000000000000000000000000000000000000000000000000000000000000006001600160a01b03169063b88d4fde9060a401600060405180830381600087803b15801561078557600080fd5b505af1158015610799573d6000803e3d6000fd5b5050604080518b8152602081018b90523393507f43b453d8d1a78d05fdd6b463c4ecc642e03ec902fcd7d7b64469fba191bdf9af92500160405180910390a25050505050505050565b6040516370a0823160e01b81526001600160a01b0382811660048301526060916000917f000000000000000000000000000000000000000000000000000000000000000016906370a0823190602401602060405180830381865afa15801561084e573d6000803e3d6000fd5b505050506040513d601f19601f82011682018060405250810190610872919061107a565b905060008167ffffffffffffffff81111561088f5761088f610e35565b6040519080825280602002602001820160405280156108b8578160200160208202803683370190505b5090506000805b838110801561094f57507f00000000000000000000000000000000000000000000000000000000000000006001600160a01b031663a2309ff86040518163ffffffff1660e01b8152600401602060405180830381865afa158015610927573d6000803e3d6000fd5b505050506040513d601f19601f8201168201806040525081019061094b919061107a565b8211155b15610aae576040516331a9108f60e11b8152600481018390527f00000000000000000000000000000000000000000000000000000000000000006001600160a01b031690636352211e90602401602060405180830381865afa9250505080156109d5575060408051601f3d908101601f191682019092526109d291810190611093565b60015b610a55576109e16110b0565b806308c379a003610a0657506109f56110cc565b80610a005750610a1f565b50610a9c565b634e487b7103610a1f57610a18611156565b90610a0057505b3d808015610a49576040519150601f19603f3d011682016040523d82523d6000602084013e610a4e565b606091505b5050610a9c565b866001600160a01b0316816001600160a01b031603610a9a5782848381518110610a8157610a81611176565b602090810291909101015281610a968161118c565b9250505b505b81610aa68161118c565b9250506108bf565b5090949350505050565b610ac0610bca565b610aca6000610cd1565b565b610ad4610bca565b6001600160a01b038116610b395760405162461bcd60e51b815260206004820152602660248201527f4f776e61626c653a206e6577206f776e657220697320746865207a65726f206160448201526564647265737360d01b60648201526084016105a1565b610b4281610cd1565b50565b60008060005b8351811015610bc357610b5f816001611067565b8451610b6b91906111a5565b610b769060086111b8565b610b819060026112b3565b848281518110610b9357610b93611176565b0160200151610ba5919060f81c6111b8565b610baf9083611067565b915080610bbb8161118c565b915050610b4b565b5092915050565b6000546001600160a01b03163314610aca5760405162461bcd60e51b815260206004820181905260248201527f4f776e61626c653a2063616c6c6572206973206e6f7420746865206f776e657260448201526064016105a1565b600080610ca38730888888604051602001610c439594939291906112bf565b60408051601f1981840301815282825280516020918201207f19457468657265756d205369676e6564204d6573736167653a0a33320000000084830152603c8085019190915282518085039091018152605c909301909152815191012090565b6002549091506001600160a01b0316610cbc8285610d21565b6001600160a01b031614979650505050505050565b600080546001600160a01b038381166001600160a01b0319831681178455604051919092169283917f8be0079c531659141344cd1fd0a4f28419497f9722a3daafe3b4186f6b6457e09190a35050565b600080600080610d3085610da1565b6040805160008152602081018083528b905260ff8516918101919091526060810183905260808101829052929550909350915060019060a0016020604051602081039080840390855afa158015610d8b573d6000803e3d6000fd5b5050506020604051035193505050505b92915050565b60008060008351604114610deb5760405162461bcd60e51b8152602060048201526011602482015270496e76616c6964207369676e617475726560781b60448201526064016105a1565b5050506020810151604082015160609092015160001a92909190565b600060208284031215610e1957600080fd5b5035919050565b6001600160a01b0381168114610b4257600080fd5b634e487b7160e01b600052604160045260246000fd5b601f8201601f1916810167ffffffffffffffff81118282101715610e7157610e71610e35565b6040525050565b600082601f830112610e8957600080fd5b813567ffffffffffffffff811115610ea357610ea3610e35565b604051610eba601f8301601f191660200182610e4b565b818152846020838601011115610ecf57600080fd5b816020850160208301376000918101602001919091529392505050565b60008060008060808587031215610f0257600080fd5b8435610f0d81610e20565b93506020850135610f1d81610e20565b925060408501359150606085013567ffffffffffffffff811115610f4057600080fd5b610f4c87828801610e78565b91505092959194509250565b600080600060608486031215610f6d57600080fd5b8335610f7881610e20565b92506020840135610f8881610e20565b929592945050506040919091013590565b600080600060608486031215610fae57600080fd5b8335925060208401359150604084013567ffffffffffffffff811115610fd357600080fd5b610fdf86828701610e78565b9150509250925092565b600060208284031215610ffb57600080fd5b813561100681610e20565b9392505050565b6020808252825182820181905260009190848201906040850190845b8181101561104557835183529284019291840191600101611029565b50909695505050505050565b634e487b7160e01b600052601160045260246000fd5b80820180821115610d9b57610d9b611051565b60006020828403121561108c57600080fd5b5051919050565b6000602082840312156110a557600080fd5b815161100681610e20565b600060033d11156110c95760046000803e5060005160e01c5b90565b600060443d10156110da5790565b6040516003193d81016004833e81513d67ffffffffffffffff816024840111818411171561110a57505050505090565b82850191508151818111156111225750505050505090565b843d870101602082850101111561113c5750505050505090565b61114b60208286010187610e4b565b509095945050505050565b60008060233d1115611172576020600460003e50506000516001905b9091565b634e487b7160e01b600052603260045260246000fd5b60006001820161119e5761119e611051565b5060010190565b81810381811115610d9b57610d9b611051565b8082028115828204841417610d9b57610d9b611051565b600181815b8085111561120a5781600019048211156111f0576111f0611051565b808516156111fd57918102915b93841c93908002906111d4565b509250929050565b60008261122157506001610d9b565b8161122e57506000610d9b565b8160018114611244576002811461124e5761126a565b6001915050610d9b565b60ff84111561125f5761125f611051565b50506001821b610d9b565b5060208310610133831016604e8410600b841016171561128d575081810a610d9b565b61129783836111cf565b80600019048211156112ab576112ab611051565b029392505050565b60006110068383611212565b6000865160005b818110156112e0576020818a0181015185830152016112c6565b506bffffffffffffffffffffffff19606097881b8116919093019081529490951b166014840152602883019190915260488201526068019291505056fe776974686472617744544b4865726f2875696e743235362c75696e743235362c627974657329a264697066735822122085be09099b30fcb6a22e0be0baaf5f29e7ce9ec3c3e14f7ac47aec85469e1be264736f6c63430008110033",
  "devdoc": {
    "kind": "dev",
    "methods": {
      "owner()": {
        "details": "Returns the address of the current owner."
      },
      "renounceOwnership()": {
        "details": "Leaves the contract without owner. It will not be possible to call `onlyOwner` functions anymore. Can only be called by the current owner. NOTE: Renouncing ownership will leave the contract without an owner, thereby removing any functionality that is only available to the owner."
      },
      "transferOwnership(address)": {
        "details": "Transfers ownership of the contract to a new account (`newOwner`). Can only be called by the current owner."
      }
    },
    "version": 1
  },
  "userdoc": {
    "kind": "user",
    "methods": {},
    "version": 1
  },
  "storageLayout": {
    "storage": [
      {
        "astId": 7,
        "contract": "contracts/DTKHeroControlPool.sol:DTKHeroControlPool",
        "label": "_owner",
        "offset": 0,
        "slot": "0",
        "type": "t_address"
      },
      {
        "astId": 2778,
        "contract": "contracts/DTKHeroControlPool.sol:DTKHeroControlPool",
        "label": "_depositedDtkHero",
        "offset": 0,
        "slot": "1",
        "type": "t_mapping(t_uint256,t_struct(DepositInfo)2730_storage)"
      },
      {
        "astId": 2780,
        "contract": "contracts/DTKHeroControlPool.sol:DTKHeroControlPool",
        "label": "authSigner",
        "offset": 0,
        "slot": "2",
        "type": "t_address"
      },
      {
        "astId": 2784,
        "contract": "contracts/DTKHeroControlPool.sol:DTKHeroControlPool",
        "label": "sigNonces",
        "offset": 0,
        "slot": "3",
        "type": "t_mapping(t_address,t_uint256)"
      }
    ],
    "types": {
      "t_address": {
        "encoding": "inplace",
        "label": "address",
        "numberOfBytes": "20"
      },
      "t_bool": {
        "encoding": "inplace",
        "label": "bool",
        "numberOfBytes": "1"
      },
      "t_mapping(t_address,t_uint256)": {
        "encoding": "mapping",
        "key": "t_address",
        "label": "mapping(address => uint256)",
        "numberOfBytes": "32",
        "value": "t_uint256"
      },
      "t_mapping(t_uint256,t_struct(DepositInfo)2730_storage)": {
        "encoding": "mapping",
        "key": "t_uint256",
        "label": "mapping(uint256 => struct DepositInfo)",
        "numberOfBytes": "32",
        "value": "t_struct(DepositInfo)2730_storage"
      },
      "t_struct(DepositInfo)2730_storage": {
        "encoding": "inplace",
        "label": "struct DepositInfo",
        "members": [
          {
            "astId": 2725,
            "contract": "contracts/DTKHeroControlPool.sol:DTKHeroControlPool",
            "label": "depositor",
            "offset": 0,
            "slot": "0",
            "type": "t_address"
          },
          {
            "astId": 2727,
            "contract": "contracts/DTKHeroControlPool.sol:DTKHeroControlPool",
            "label": "hasPlayerId",
            "offset": 20,
            "slot": "0",
            "type": "t_bool"
          },
          {
            "astId": 2729,
            "contract": "contracts/DTKHeroControlPool.sol:DTKHeroControlPool",
            "label": "playerId",
            "offset": 0,
            "slot": "1",
            "type": "t_uint256"
          }
        ],
        "numberOfBytes": "64"
      },
      "t_uint256": {
        "encoding": "inplace",
        "label": "uint256",
        "numberOfBytes": "32"
      }
    }
  }
}