{
  "address": "0xB54239d54DbfeBC0d8035427227343B9fF42F17B",
  "abi": [
    {
      "inputs": [
        {
          "internalType": "address",
          "name": "_authSigner",
          "type": "address"
        },
        {
          "internalType": "uint256",
          "name": "_maxSupply",
          "type": "uint256"
        },
        {
          "internalType": "string",
          "name": "_uriPrefix",
          "type": "string"
        },
        {
          "internalType": "string",
          "name": "_uriSuffix",
          "type": "string"
        }
      ],
      "stateMutability": "nonpayable",
      "type": "constructor"
    },
    {
      "anonymous": false,
      "inputs": [
        {
          "indexed": true,
          "internalType": "address",
          "name": "owner",
          "type": "address"
        },
        {
          "indexed": true,
          "internalType": "address",
          "name": "approved",
          "type": "address"
        },
        {
          "indexed": true,
          "internalType": "uint256",
          "name": "tokenId",
          "type": "uint256"
        }
      ],
      "name": "Approval",
      "type": "event"
    },
    {
      "anonymous": false,
      "inputs": [
        {
          "indexed": true,
          "internalType": "address",
          "name": "owner",
          "type": "address"
        },
        {
          "indexed": true,
          "internalType": "address",
          "name": "operator",
          "type": "address"
        },
        {
          "indexed": false,
          "internalType": "bool",
          "name": "approved",
          "type": "bool"
        }
      ],
      "name": "ApprovalForAll",
      "type": "event"
    },
    {
      "anonymous": false,
      "inputs": [
        {
          "indexed": true,
          "internalType": "address",
          "name": "owner",
          "type": "address"
        },
        {
          "indexed": true,
          "internalType": "uint256",
          "name": "tokenId",
          "type": "uint256"
        }
      ],
      "name": "Burn",
      "type": "event"
    },
    {
      "anonymous": false,
      "inputs": [
        {
          "indexed": true,
          "internalType": "address",
          "name": "owner",
          "type": "address"
        },
        {
          "indexed": true,
          "internalType": "uint256",
          "name": "tokenId",
          "type": "uint256"
        },
        {
          "indexed": true,
          "internalType": "uint256",
          "name": "nonce",
          "type": "uint256"
        }
      ],
      "name": "Deposit",
      "type": "event"
    },
    {
      "anonymous": false,
      "inputs": [
        {
          "indexed": true,
          "internalType": "address",
          "name": "minter",
          "type": "address"
        },
        {
          "indexed": true,
          "internalType": "uint256",
          "name": "tokenId",
          "type": "uint256"
        },
        {
          "indexed": true,
          "internalType": "uint256",
          "name": "nonce",
          "type": "uint256"
        }
      ],
      "name": "Mint",
      "type": "event"
    },
    {
      "anonymous": false,
      "inputs": [
        {
          "indexed": true,
          "internalType": "address",
          "name": "previousOwner",
          "type": "address"
        },
        {
          "indexed": true,
          "internalType": "address",
          "name": "newOwner",
          "type": "address"
        }
      ],
      "name": "OwnershipTransferred",
      "type": "event"
    },
    {
      "anonymous": false,
      "inputs": [
        {
          "indexed": false,
          "internalType": "address",
          "name": "account",
          "type": "address"
        }
      ],
      "name": "Paused",
      "type": "event"
    },
    {
      "anonymous": false,
      "inputs": [
        {
          "indexed": true,
          "internalType": "address",
          "name": "from",
          "type": "address"
        },
        {
          "indexed": true,
          "internalType": "address",
          "name": "to",
          "type": "address"
        },
        {
          "indexed": true,
          "internalType": "uint256",
          "name": "tokenId",
          "type": "uint256"
        }
      ],
      "name": "Transfer",
      "type": "event"
    },
    {
      "anonymous": false,
      "inputs": [
        {
          "indexed": false,
          "internalType": "address",
          "name": "account",
          "type": "address"
        }
      ],
      "name": "Unpaused",
      "type": "event"
    },
    {
      "anonymous": false,
      "inputs": [
        {
          "indexed": true,
          "internalType": "address",
          "name": "owner",
          "type": "address"
        },
        {
          "indexed": true,
          "internalType": "uint256",
          "name": "tokenId",
          "type": "uint256"
        },
        {
          "indexed": true,
          "internalType": "uint256",
          "name": "nonce",
          "type": "uint256"
        }
      ],
      "name": "Withdraw",
      "type": "event"
    },
    {
      "inputs": [
        {
          "internalType": "address",
          "name": "to",
          "type": "address"
        },
        {
          "internalType": "uint256",
          "name": "tokenId",
          "type": "uint256"
        }
      ],
      "name": "approve",
      "outputs": [],
      "stateMutability": "nonpayable",
      "type": "function"
    },
    {
      "inputs": [],
      "name": "authSigner",
      "outputs": [
        {
          "internalType": "address",
          "name": "",
          "type": "address"
        }
      ],
      "stateMutability": "view",
      "type": "function"
    },
    {
      "inputs": [
        {
          "internalType": "address",
          "name": "owner",
          "type": "address"
        }
      ],
      "name": "balanceOf",
      "outputs": [
        {
          "internalType": "uint256",
          "name": "",
          "type": "uint256"
        }
      ],
      "stateMutability": "view",
      "type": "function"
    },
    {
      "inputs": [
        {
          "internalType": "uint256",
          "name": "tokenId",
          "type": "uint256"
        }
      ],
      "name": "burn",
      "outputs": [],
      "stateMutability": "nonpayable",
      "type": "function"
    },
    {
      "inputs": [
        {
          "internalType": "address",
          "name": "walletAddress",
          "type": "address"
        }
      ],
      "name": "currentNonce",
      "outputs": [
        {
          "internalType": "uint256",
          "name": "",
          "type": "uint256"
        }
      ],
      "stateMutability": "view",
      "type": "function"
    },
    {
      "inputs": [
        {
          "internalType": "uint256",
          "name": "tokenId",
          "type": "uint256"
        }
      ],
      "name": "getApproved",
      "outputs": [
        {
          "internalType": "address",
          "name": "",
          "type": "address"
        }
      ],
      "stateMutability": "view",
      "type": "function"
    },
    {
      "inputs": [
        {
          "internalType": "address",
          "name": "owner",
          "type": "address"
        },
        {
          "internalType": "address",
          "name": "operator",
          "type": "address"
        }
      ],
      "name": "isApprovedForAll",
      "outputs": [
        {
          "internalType": "bool",
          "name": "",
          "type": "bool"
        }
      ],
      "stateMutability": "view",
      "type": "function"
    },
    {
      "inputs": [],
      "name": "maxSupply",
      "outputs": [
        {
          "internalType": "uint256",
          "name": "",
          "type": "uint256"
        }
      ],
      "stateMutability": "view",
      "type": "function"
    },
    {
      "inputs": [
        {
          "internalType": "uint256",
          "name": "nonce",
          "type": "uint256"
        },
        {
          "internalType": "bytes",
          "name": "sig",
          "type": "bytes"
        }
      ],
      "name": "mint",
      "outputs": [],
      "stateMutability": "nonpayable",
      "type": "function"
    },
    {
      "inputs": [],
      "name": "name",
      "outputs": [
        {
          "internalType": "string",
          "name": "",
          "type": "string"
        }
      ],
      "stateMutability": "view",
      "type": "function"
    },
    {
      "inputs": [],
      "name": "owner",
      "outputs": [
        {
          "internalType": "address",
          "name": "",
          "type": "address"
        }
      ],
      "stateMutability": "view",
      "type": "function"
    },
    {
      "inputs": [
        {
          "internalType": "uint256",
          "name": "tokenId",
          "type": "uint256"
        }
      ],
      "name": "ownerOf",
      "outputs": [
        {
          "internalType": "address",
          "name": "",
          "type": "address"
        }
      ],
      "stateMutability": "view",
      "type": "function"
    },
    {
      "inputs": [],
      "name": "pause",
      "outputs": [],
      "stateMutability": "nonpayable",
      "type": "function"
    },
    {
      "inputs": [],
      "name": "paused",
      "outputs": [
        {
          "internalType": "bool",
          "name": "",
          "type": "bool"
        }
      ],
      "stateMutability": "view",
      "type": "function"
    },
    {
      "inputs": [],
      "name": "renounceOwnership",
      "outputs": [],
      "stateMutability": "nonpayable",
      "type": "function"
    },
    {
      "inputs": [
        {
          "internalType": "address",
          "name": "from",
          "type": "address"
        },
        {
          "internalType": "address",
          "name": "to",
          "type": "address"
        },
        {
          "internalType": "uint256",
          "name": "tokenId",
          "type": "uint256"
        }
      ],
      "name": "safeTransferFrom",
      "outputs": [],
      "stateMutability": "nonpayable",
      "type": "function"
    },
    {
      "inputs": [
        {
          "internalType": "address",
          "name": "from",
          "type": "address"
        },
        {
          "internalType": "address",
          "name": "to",
          "type": "address"
        },
        {
          "internalType": "uint256",
          "name": "tokenId",
          "type": "uint256"
        },
        {
          "internalType": "bytes",
          "name": "data",
          "type": "bytes"
        }
      ],
      "name": "safeTransferFrom",
      "outputs": [],
      "stateMutability": "nonpayable",
      "type": "function"
    },
    {
      "inputs": [
        {
          "internalType": "address",
          "name": "operator",
          "type": "address"
        },
        {
          "internalType": "bool",
          "name": "approved",
          "type": "bool"
        }
      ],
      "name": "setApprovalForAll",
      "outputs": [],
      "stateMutability": "nonpayable",
      "type": "function"
    },
    {
      "inputs": [
        {
          "internalType": "string",
          "name": "_uriPrefix",
          "type": "string"
        }
      ],
      "name": "setUriPrefix",
      "outputs": [],
      "stateMutability": "nonpayable",
      "type": "function"
    },
    {
      "inputs": [
        {
          "internalType": "string",
          "name": "_uriSuffix",
          "type": "string"
        }
      ],
      "name": "setUriSuffix",
      "outputs": [],
      "stateMutability": "nonpayable",
      "type": "function"
    },
    {
      "inputs": [
        {
          "internalType": "bytes4",
          "name": "interfaceId",
          "type": "bytes4"
        }
      ],
      "name": "supportsInterface",
      "outputs": [
        {
          "internalType": "bool",
          "name": "",
          "type": "bool"
        }
      ],
      "stateMutability": "view",
      "type": "function"
    },
    {
      "inputs": [],
      "name": "symbol",
      "outputs": [
        {
          "internalType": "string",
          "name": "",
          "type": "string"
        }
      ],
      "stateMutability": "view",
      "type": "function"
    },
    {
      "inputs": [
        {
          "internalType": "uint256",
          "name": "tokenId",
          "type": "uint256"
        }
      ],
      "name": "tokenDepositStatus",
      "outputs": [
        {
          "internalType": "bool",
          "name": "",
          "type": "bool"
        }
      ],
      "stateMutability": "view",
      "type": "function"
    },
    {
      "inputs": [
        {
          "internalType": "uint256",
          "name": "tokenId",
          "type": "uint256"
        }
      ],
      "name": "tokenURI",
      "outputs": [
        {
          "internalType": "string",
          "name": "",
          "type": "string"
        }
      ],
      "stateMutability": "view",
      "type": "function"
    },
    {
      "inputs": [
        {
          "internalType": "address",
          "name": "owner",
          "type": "address"
        }
      ],
      "name": "tokensOfOwner",
      "outputs": [
        {
          "components": [
            {
              "internalType": "uint256",
              "name": "tokenId",
              "type": "uint256"
            },
            {
              "internalType": "bool",
              "name": "deposited",
              "type": "bool"
            }
          ],
          "internalType": "struct TokenInfo[]",
          "name": "",
          "type": "tuple[]"
        }
      ],
      "stateMutability": "view",
      "type": "function"
    },
    {
      "inputs": [],
      "name": "totalMinted",
      "outputs": [
        {
          "internalType": "uint256",
          "name": "",
          "type": "uint256"
        }
      ],
      "stateMutability": "view",
      "type": "function"
    },
    {
      "inputs": [],
      "name": "totalSupply",
      "outputs": [
        {
          "internalType": "uint256",
          "name": "",
          "type": "uint256"
        }
      ],
      "stateMutability": "view",
      "type": "function"
    },
    {
      "inputs": [
        {
          "internalType": "address",
          "name": "from",
          "type": "address"
        },
        {
          "internalType": "address",
          "name": "to",
          "type": "address"
        },
        {
          "internalType": "uint256",
          "name": "tokenId",
          "type": "uint256"
        }
      ],
      "name": "transferFrom",
      "outputs": [],
      "stateMutability": "nonpayable",
      "type": "function"
    },
    {
      "inputs": [
        {
          "internalType": "address",
          "name": "newOwner",
          "type": "address"
        }
      ],
      "name": "transferOwnership",
      "outputs": [],
      "stateMutability": "nonpayable",
      "type": "function"
    },
    {
      "inputs": [],
      "name": "unpause",
      "outputs": [],
      "stateMutability": "nonpayable",
      "type": "function"
    },
    {
      "inputs": [],
      "name": "uriPrefix",
      "outputs": [
        {
          "internalType": "string",
          "name": "",
          "type": "string"
        }
      ],
      "stateMutability": "view",
      "type": "function"
    },
    {
      "inputs": [],
      "name": "uriSuffix",
      "outputs": [
        {
          "internalType": "string",
          "name": "",
          "type": "string"
        }
      ],
      "stateMutability": "view",
      "type": "function"
    }
  ],
  "transactionHash": "0x3bc915540ba420077adf4264c09c23a5267348ac6256869a65c7c2842c5c20fa",
  "args": [
    "0x7d14F396d347C960bC2774141D51DA59Be408F71",
    3000,
    "https://asia-northeast1-defend-the-kingdom-unitytest.cloudfunctions.net/dtkHeroNftMetadata/",
    ""
  ],
  "numDeployments": 4,
  "solcInputHash": "f040ee3f4d2a0a5297c6672d23655d14",
  "bytecode": "0x60a060405260006080908152600d906200001a908262000278565b50604080516020810190915260008152600e9062000039908262000278565b503480156200004757600080fd5b506040516200287c3803806200287c8339810160408190526200006a91620003f3565b6040518060400160405280600e81526020016d44544b4865726f47656e6573697360901b8152506040518060400160405280600581526020016444544b484760d81b8152508160009081620000c0919062000278565b506001620000cf828262000278565b50506006805460ff1916905550620000e73362000179565b6001600160a01b038416620001315760405162461bcd60e51b815260206004820152600c60248201526b24b73b30b634b21030b2323960a11b604482015260640160405180910390fd5b600a80546001600160a01b0319166001600160a01b0386161790556009839055600d6200015f838262000278565b50600e6200016e828262000278565b505050505062000487565b600680546001600160a01b03838116610100818102610100600160a81b031985161790945560405193909204169182907f8be0079c531659141344cd1fd0a4f28419497f9722a3daafe3b4186f6b6457e090600090a35050565b634e487b7160e01b600052604160045260246000fd5b600181811c90821680620001fe57607f821691505b6020821081036200021f57634e487b7160e01b600052602260045260246000fd5b50919050565b601f8211156200027357600081815260208120601f850160051c810160208610156200024e5750805b601f850160051c820191505b818110156200026f578281556001016200025a565b5050505b505050565b81516001600160401b03811115620002945762000294620001d3565b620002ac81620002a58454620001e9565b8462000225565b602080601f831160018114620002e45760008415620002cb5750858301515b600019600386901b1c1916600185901b1785556200026f565b600085815260208120601f198616915b828110156200031557888601518255948401946001909101908401620002f4565b5085821015620003345787850151600019600388901b60f8161c191681555b5050505050600190811b01905550565b600082601f8301126200035657600080fd5b81516001600160401b0380821115620003735762000373620001d3565b604051601f8301601f19908116603f011681019082821181831017156200039e576200039e620001d3565b81604052838152602092508683858801011115620003bb57600080fd5b600091505b83821015620003df5785820183015181830184015290820190620003c0565b600093810190920192909252949350505050565b600080600080608085870312156200040a57600080fd5b84516001600160a01b03811681146200042257600080fd5b6020860151604087015191955093506001600160401b03808211156200044757600080fd5b620004558883890162000344565b935060608701519150808211156200046c57600080fd5b506200047b8782880162000344565b91505092959194509250565b6123e580620004976000396000f3fe608060405234801561001057600080fd5b50600436106101f05760003560e01c8063715018a61161010f578063a2309ff8116100a2578063d5abeb0111610071578063d5abeb011461041e578063db7fd40814610427578063e985e9c51461043a578063f2fde38b1461044d57600080fd5b8063a2309ff8146103dd578063b42348ac146103e5578063b88d4fde146103f8578063c87b56dd1461040b57600080fd5b80638da5cb5b116100de5780638da5cb5b1461038957806395d89b411461039f57806397cebbec146103a7578063a22cb465146103ca57600080fd5b8063715018a6146103465780637ec4a6591461034e5780638456cb59146103615780638462151c1461036957600080fd5b806342842e0e1161018757806362b99ad41161015657806362b99ad4146102ef5780636352211e146102f75780636437ecfc1461030a57806370a082311461033357600080fd5b806342842e0e146102b657806342966c68146102c95780635503a0e8146102dc5780635c975abb146102e457600080fd5b806316ba10e0116101c357806316ba10e01461027257806318160ddd1461028557806323b872dd1461029b5780633f4ba83a146102ae57600080fd5b806301ffc9a7146101f557806306fdde031461021d578063081812fc14610232578063095ea7b31461025d575b600080fd5b610208610203366004611c54565b610460565b60405190151581526020015b60405180910390f35b6102256104b2565b6040516102149190611cc1565b610245610240366004611cd4565b610544565b6040516001600160a01b039091168152602001610214565b61027061026b366004611d09565b61056b565b005b610270610280366004611dbf565b610685565b61028d61069d565b604051908152602001610214565b6102706102a9366004611e08565b6106ad565b6102706106e7565b6102706102c4366004611e08565b6106f9565b6102706102d7366004611cd4565b610733565b6102256107fa565b60065460ff16610208565b610225610888565b610245610305366004611cd4565b610895565b61028d610318366004611e44565b6001600160a01b03166000908152600b602052604090205490565b61028d610341366004611e44565b6108f5565b61027061097b565b61027061035c366004611dbf565b61098d565b6102706109a1565b61037c610377366004611e44565b6109b1565b6040516102149190611e5f565b60065461010090046001600160a01b0316610245565b610225610b0f565b6102086103b5366004611cd4565b6000908152600c602052604090205460ff1690565b6102706103d8366004611eb0565b610b1e565b61028d610b29565b600a54610245906001600160a01b031681565b610270610406366004611f0c565b610b34565b610225610419366004611cd4565b610b75565b61028d60095481565b610270610435366004611f74565b610bdf565b610208610448366004611fbb565b610da2565b61027061045b366004611e44565b610dd0565b60006001600160e01b031982166380ac58cd60e01b148061049157506001600160e01b03198216635b5e139f60e01b145b806104ac57506301ffc9a760e01b6001600160e01b03198316145b92915050565b6060600080546104c190611fee565b80601f01602080910402602001604051908101604052809291908181526020018280546104ed90611fee565b801561053a5780601f1061050f5761010080835404028352916020019161053a565b820191906000526020600020905b81548152906001019060200180831161051d57829003601f168201915b5050505050905090565b600061054f82610e49565b506000908152600460205260409020546001600160a01b031690565b600061057682610895565b9050806001600160a01b0316836001600160a01b0316036105e85760405162461bcd60e51b815260206004820152602160248201527f4552433732313a20617070726f76616c20746f2063757272656e74206f776e656044820152603960f91b60648201526084015b60405180910390fd5b336001600160a01b038216148061060457506106048133610da2565b6106765760405162461bcd60e51b815260206004820152603d60248201527f4552433732313a20617070726f76652063616c6c6572206973206e6f7420746f60448201527f6b656e206f776e6572206f7220617070726f76656420666f7220616c6c00000060648201526084016105df565b6106808383610ea8565b505050565b61068d610f16565b600e6106998282612076565b5050565b60006106a860075490565b905090565b6000818152600c602052604090205460ff16156106dc5760405162461bcd60e51b81526004016105df90612136565b610680838383610f76565b6106ef610f16565b6106f7610fec565b565b6000818152600c602052604090205460ff16156107285760405162461bcd60e51b81526004016105df90612136565b61068083838361103e565b8061073c611059565b61074581610e49565b610750335b8261109f565b61078b5760405162461bcd60e51b815260206004820152600c60248201526b155b985d5d1a1bdc9a5e995960a21b60448201526064016105df565b6000818152600c602052604090205460ff16156107ba5760405162461bcd60e51b81526004016105df90612136565b6107c3826110fe565b604051829033907fcc16f5dbb4873280815c1ee09dbd06736cffcc184412cf7a71a0fdb75d397ca590600090a361069960076111a1565b600e805461080790611fee565b80601f016020809104026020016040519081016040528092919081815260200182805461083390611fee565b80156108805780601f1061085557610100808354040283529160200191610880565b820191906000526020600020905b81548152906001019060200180831161086357829003601f168201915b505050505081565b600d805461080790611fee565b6000818152600260205260408120546001600160a01b0316806104ac5760405162461bcd60e51b8152602060048201526018602482015277115490cdcc8c4e881a5b9d985b1a59081d1bdad95b88125160421b60448201526064016105df565b60006001600160a01b03821661095f5760405162461bcd60e51b815260206004820152602960248201527f4552433732313a2061646472657373207a65726f206973206e6f7420612076616044820152683634b21037bbb732b960b91b60648201526084016105df565b506001600160a01b031660009081526003602052604090205490565b610983610f16565b6106f760006111f8565b610995610f16565b600d6106998282612076565b6109a9610f16565b6106f7611252565b606060006109be836108f5565b905060008167ffffffffffffffff8111156109db576109db611d33565b604051908082528060200260200182016040528015610a2057816020015b60408051808201909152600080825260208201528152602001906001900390816109f95790505b5090506000805b8381108015610a3d5750610a3961069d565b8211155b15610b05576000828152600260205260409020546001600160a01b031615610af3576000610a6a83610895565b9050866001600160a01b0316816001600160a01b031603610af15782848381518110610a9857610a9861216d565b602090810291909101810151919091526000848152600c9091526040902054845160ff90911690859084908110610ad157610ad161216d565b60209081029190910181015191151591015281610aed81612199565b9250505b505b81610afd81612199565b925050610a27565b5090949350505050565b6060600180546104c190611fee565b61069933838361128f565b60006106a860085490565b6000828152600c602052604090205460ff1615610b635760405162461bcd60e51b81526004016105df90612136565b610b6f8484848461135d565b50505050565b6060610b8082610e49565b6000610b8a611390565b90506000815111610baa5760405180602001604052806000815250610bd8565b80610bb48461139f565b600e604051602001610bc8939291906121b2565b6040516020818303038152906040525b9392505050565b338282610bea611059565b81610c0a846001600160a01b03166000908152600b602052604090205490565b14610c475760405162461bcd60e51b815260206004820152600d60248201526c496e76616c6964206e6f6e636560981b60448201526064016105df565b610c886040518060400160405280601b81526020017f6d696e742875696e743235362c75696e743235362c6279746573290000000000815250848484611432565b610cc85760405162461bcd60e51b8152602060048201526011602482015270496e76616c6964207369676e617475726560781b60448201526064016105df565b600954600754610cd9906001612252565b1115610d1e5760405162461bcd60e51b81526020600482015260146024820152734d617820737570706c792065786365656465642160601b60448201526064016105df565b610d2a336007546114dc565b336000908152600b60205260408120805460019290610d4a908490612252565b9091555050600780546001019055610d66600880546001019055565b84610d7060075490565b60405133907f4c209b5fc8ad50758f13e2e1088ba56a560dff690a1c6fef26394f4c03821c4f90600090a45050505050565b6001600160a01b03918216600090815260056020908152604080832093909416825291909152205460ff1690565b610dd8610f16565b6001600160a01b038116610e3d5760405162461bcd60e51b815260206004820152602660248201527f4f776e61626c653a206e6577206f776e657220697320746865207a65726f206160448201526564647265737360d01b60648201526084016105df565b610e46816111f8565b50565b6000818152600260205260409020546001600160a01b0316610e465760405162461bcd60e51b8152602060048201526018602482015277115490cdcc8c4e881a5b9d985b1a59081d1bdad95b88125160421b60448201526064016105df565b600081815260046020526040902080546001600160a01b0319166001600160a01b0384169081179091558190610edd82610895565b6001600160a01b03167f8c5be1e5ebec7d5bd14f71427d1e84f3dd0314c0f7b2291e5b200ac8c7c3b92560405160405180910390a45050565b6006546001600160a01b036101009091041633146106f75760405162461bcd60e51b815260206004820181905260248201527f4f776e61626c653a2063616c6c6572206973206e6f7420746865206f776e657260448201526064016105df565b610f7f3361074a565b610fe15760405162461bcd60e51b815260206004820152602d60248201527f4552433732313a2063616c6c6572206973206e6f7420746f6b656e206f776e6560448201526c1c881bdc88185c1c1c9bdd9959609a1b60648201526084016105df565b6106808383836114f6565b610ff4611667565b6006805460ff191690557f5db9ee0a495bf2e6ff9c91a7834c1ba4fdd244a5e8aa4e537bd38aeae4b073aa335b6040516001600160a01b03909116815260200160405180910390a1565b61068083838360405180602001604052806000815250610b34565b60065460ff16156106f75760405162461bcd60e51b815260206004820152601060248201526f14185d5cd8589b194e881c185d5cd95960821b60448201526064016105df565b6000806110ab83610895565b9050806001600160a01b0316846001600160a01b031614806110d257506110d28185610da2565b806110f65750836001600160a01b03166110eb84610544565b6001600160a01b0316145b949350505050565b600061110982610895565b90506111198160008460016116b0565b61112282610895565b600083815260046020908152604080832080546001600160a01b03199081169091556001600160a01b0385168085526003845282852080546000190190558785526002909352818420805490911690555192935084927fddf252ad1be2c89b69c2b068fc378daa952ba7f163c4a11628f55a4df523b3ef908390a45050565b8054806111f05760405162461bcd60e51b815260206004820152601b60248201527f436f756e7465723a2064656372656d656e74206f766572666c6f77000000000060448201526064016105df565b600019019055565b600680546001600160a01b03838116610100818102610100600160a81b031985161790945560405193909204169182907f8be0079c531659141344cd1fd0a4f28419497f9722a3daafe3b4186f6b6457e090600090a35050565b61125a611059565b6006805460ff191660011790557f62e78cea01bee320cd4e420270b5ea74000d11b0c9f74754ebdbfc544b05a2586110213390565b816001600160a01b0316836001600160a01b0316036112f05760405162461bcd60e51b815260206004820152601960248201527f4552433732313a20617070726f766520746f2063616c6c65720000000000000060448201526064016105df565b6001600160a01b03838116600081815260056020908152604080832094871680845294825291829020805460ff191686151590811790915591519182527f17307eab39ab6107e8899845ad3d59bd9653f200f220920489ca2b5937696c31910160405180910390a3505050565b6113688484846114f6565b611374848484846116bc565b610b6f5760405162461bcd60e51b81526004016105df90612265565b6060600d80546104c190611fee565b606060006113ac836117ba565b600101905060008167ffffffffffffffff8111156113cc576113cc611d33565b6040519080825280601f01601f1916602001820160405280156113f6576020820181803683370190505b5090508181016020015b600019016f181899199a1a9b1b9c1cb0b131b232b360811b600a86061a8153600a850494508461140057509392505050565b6000806114af8630878760405160200161144f94939291906122b7565b60408051601f1981840301815282825280516020918201207f19457468657265756d205369676e6564204d6573736167653a0a33320000000084830152603c8085019190915282518085039091018152605c909301909152815191012090565b600a549091506001600160a01b03166114c88285611892565b6001600160a01b0316149695505050505050565b610699828260405180602001604052806000815250611911565b826001600160a01b031661150982610895565b6001600160a01b03161461152f5760405162461bcd60e51b81526004016105df906122fd565b6001600160a01b0382166115915760405162461bcd60e51b8152602060048201526024808201527f4552433732313a207472616e7366657220746f20746865207a65726f206164646044820152637265737360e01b60648201526084016105df565b61159e83838360016116b0565b826001600160a01b03166115b182610895565b6001600160a01b0316146115d75760405162461bcd60e51b81526004016105df906122fd565b600081815260046020908152604080832080546001600160a01b03199081169091556001600160a01b0387811680865260038552838620805460001901905590871680865283862080546001019055868652600290945282852080549092168417909155905184937fddf252ad1be2c89b69c2b068fc378daa952ba7f163c4a11628f55a4df523b3ef91a4505050565b60065460ff166106f75760405162461bcd60e51b815260206004820152601460248201527314185d5cd8589b194e881b9bdd081c185d5cd95960621b60448201526064016105df565b610b6f84848484611944565b60006001600160a01b0384163b156117b257604051630a85bd0160e11b81526001600160a01b0385169063150b7a0290611700903390899088908890600401612342565b6020604051808303816000875af192505050801561173b575060408051601f3d908101601f191682019092526117389181019061237f565b60015b611798573d808015611769576040519150601f19603f3d011682016040523d82523d6000602084013e61176e565b606091505b5080516000036117905760405162461bcd60e51b81526004016105df90612265565b805181602001fd5b6001600160e01b031916630a85bd0160e11b1490506110f6565b5060016110f6565b60008072184f03e93ff9f4daa797ed6e38ed64bf6a1f0160401b83106117f95772184f03e93ff9f4daa797ed6e38ed64bf6a1f0160401b830492506040015b6d04ee2d6d415b85acef81000000008310611825576d04ee2d6d415b85acef8100000000830492506020015b662386f26fc10000831061184357662386f26fc10000830492506010015b6305f5e100831061185b576305f5e100830492506008015b612710831061186f57612710830492506004015b60648310611881576064830492506002015b600a83106104ac5760010192915050565b6000806000806118a1856119b7565b6040805160008152602081018083528b905260ff8516918101919091526060810183905260808101829052929550909350915060019060a0016020604051602081039080840390855afa1580156118fc573d6000803e3d6000fd5b5050604051601f190151979650505050505050565b61191b8383611a1d565b61192860008484846116bc565b6106805760405162461bcd60e51b81526004016105df90612265565b61195084848484611bb6565b60065460ff1615610b6f5760405162461bcd60e51b815260206004820152602b60248201527f4552433732315061757361626c653a20746f6b656e207472616e73666572207760448201526a1a1a5b19481c185d5cd95960aa1b60648201526084016105df565b60008060008351604114611a015760405162461bcd60e51b8152602060048201526011602482015270496e76616c6964207369676e617475726560781b60448201526064016105df565b5050506020810151604082015160609092015160001a92909190565b6001600160a01b038216611a735760405162461bcd60e51b815260206004820181905260248201527f4552433732313a206d696e7420746f20746865207a65726f206164647265737360448201526064016105df565b6000818152600260205260409020546001600160a01b031615611ad85760405162461bcd60e51b815260206004820152601c60248201527f4552433732313a20746f6b656e20616c7265616479206d696e7465640000000060448201526064016105df565b611ae66000838360016116b0565b6000818152600260205260409020546001600160a01b031615611b4b5760405162461bcd60e51b815260206004820152601c60248201527f4552433732313a20746f6b656e20616c7265616479206d696e7465640000000060448201526064016105df565b6001600160a01b038216600081815260036020908152604080832080546001019055848352600290915280822080546001600160a01b0319168417905551839291907fddf252ad1be2c89b69c2b068fc378daa952ba7f163c4a11628f55a4df523b3ef908290a45050565b6001811115610b6f576001600160a01b03841615611bfc576001600160a01b03841660009081526003602052604081208054839290611bf690849061239c565b90915550505b6001600160a01b03831615610b6f576001600160a01b03831660009081526003602052604081208054839290611c33908490612252565b909155505050505050565b6001600160e01b031981168114610e4657600080fd5b600060208284031215611c6657600080fd5b8135610bd881611c3e565b60005b83811015611c8c578181015183820152602001611c74565b50506000910152565b60008151808452611cad816020860160208601611c71565b601f01601f19169290920160200192915050565b602081526000610bd86020830184611c95565b600060208284031215611ce657600080fd5b5035919050565b80356001600160a01b0381168114611d0457600080fd5b919050565b60008060408385031215611d1c57600080fd5b611d2583611ced565b946020939093013593505050565b634e487b7160e01b600052604160045260246000fd5b600067ffffffffffffffff80841115611d6457611d64611d33565b604051601f8501601f19908116603f01168101908282118183101715611d8c57611d8c611d33565b81604052809350858152868686011115611da557600080fd5b858560208301376000602087830101525050509392505050565b600060208284031215611dd157600080fd5b813567ffffffffffffffff811115611de857600080fd5b8201601f81018413611df957600080fd5b6110f684823560208401611d49565b600080600060608486031215611e1d57600080fd5b611e2684611ced565b9250611e3460208501611ced565b9150604084013590509250925092565b600060208284031215611e5657600080fd5b610bd882611ced565b602080825282518282018190526000919060409081850190868401855b82811015611ea3578151805185528601511515868501529284019290850190600101611e7c565b5091979650505050505050565b60008060408385031215611ec357600080fd5b611ecc83611ced565b915060208301358015158114611ee157600080fd5b809150509250929050565b600082601f830112611efd57600080fd5b610bd883833560208501611d49565b60008060008060808587031215611f2257600080fd5b611f2b85611ced565b9350611f3960208601611ced565b925060408501359150606085013567ffffffffffffffff811115611f5c57600080fd5b611f6887828801611eec565b91505092959194509250565b60008060408385031215611f8757600080fd5b82359150602083013567ffffffffffffffff811115611fa557600080fd5b611fb185828601611eec565b9150509250929050565b60008060408385031215611fce57600080fd5b611fd783611ced565b9150611fe560208401611ced565b90509250929050565b600181811c9082168061200257607f821691505b60208210810361202257634e487b7160e01b600052602260045260246000fd5b50919050565b601f82111561068057600081815260208120601f850160051c8101602086101561204f5750805b601f850160051c820191505b8181101561206e5782815560010161205b565b505050505050565b815167ffffffffffffffff81111561209057612090611d33565b6120a48161209e8454611fee565b84612028565b602080601f8311600181146120d957600084156120c15750858301515b600019600386901b1c1916600185901b17855561206e565b600085815260208120601f198616915b82811015612108578886015182559484019460019091019084016120e9565b50858210156121265787850151600019600388901b60f8161c191681555b5050505050600190811b01905550565b60208082526018908201527f546f6b656e20686173206265656e206465706f73697465640000000000000000604082015260600190565b634e487b7160e01b600052603260045260246000fd5b634e487b7160e01b600052601160045260246000fd5b6000600182016121ab576121ab612183565b5060010190565b6000845160206121c58285838a01611c71565b8551918401916121d88184848a01611c71565b85549201916000906121e981611fee565b60018281168015612201576001811461221657612242565b60ff1984168752821515830287019450612242565b896000528560002060005b8481101561223a57815489820152908301908701612221565b505082870194505b50929a9950505050505050505050565b808201808211156104ac576104ac612183565b60208082526032908201527f4552433732313a207472616e7366657220746f206e6f6e20455243373231526560408201527131b2b4bb32b91034b6b83632b6b2b73a32b960711b606082015260800190565b600085516122c9818460208a01611c71565b6bffffffffffffffffffffffff19606096871b8116919093019081529390941b166014830152602882015260480192915050565b60208082526025908201527f4552433732313a207472616e736665722066726f6d20696e636f72726563742060408201526437bbb732b960d91b606082015260800190565b6001600160a01b038581168252841660208201526040810183905260806060820181905260009061237590830184611c95565b9695505050505050565b60006020828403121561239157600080fd5b8151610bd881611c3e565b818103818111156104ac576104ac61218356fea2646970667358221220b954b431d3e324d673415319e97b930acf0f40265a7b4b6b07e25bb08f9bee0564736f6c63430008110033",
  "devdoc": {
    "kind": "dev",
    "methods": {
      "approve(address,uint256)": {
        "details": "See {IERC721-approve}."
      },
      "balanceOf(address)": {
        "details": "See {IERC721-balanceOf}."
      },
      "getApproved(uint256)": {
        "details": "See {IERC721-getApproved}."
      },
      "isApprovedForAll(address,address)": {
        "details": "See {IERC721-isApprovedForAll}."
      },
      "name()": {
        "details": "See {IERC721Metadata-name}."
      },
      "owner()": {
        "details": "Returns the address of the current owner."
      },
      "ownerOf(uint256)": {
        "details": "See {IERC721-ownerOf}."
      },
      "paused()": {
        "details": "Returns true if the contract is paused, and false otherwise."
      },
      "renounceOwnership()": {
        "details": "Leaves the contract without owner. It will not be possible to call `onlyOwner` functions anymore. Can only be called by the current owner. NOTE: Renouncing ownership will leave the contract without an owner, thereby removing any functionality that is only available to the owner."
      },
      "safeTransferFrom(address,address,uint256)": {
        "details": "See {IERC721-safeTransferFrom}."
      },
      "safeTransferFrom(address,address,uint256,bytes)": {
        "details": "See {IERC721-safeTransferFrom}."
      },
      "setApprovalForAll(address,bool)": {
        "details": "See {IERC721-setApprovalForAll}."
      },
      "supportsInterface(bytes4)": {
        "details": "See {IERC165-supportsInterface}."
      },
      "symbol()": {
        "details": "See {IERC721Metadata-symbol}."
      },
      "tokenURI(uint256)": {
        "details": "See {IERC721Metadata-tokenURI}."
      },
      "transferFrom(address,address,uint256)": {
        "details": "See {IERC721-transferFrom}."
      },
      "transferOwnership(address)": {
        "details": "Transfers ownership of the contract to a new account (`newOwner`). Can only be called by the current owner."
      }
    },
    "version": 1
  },
  "userdoc": {
    "kind": "user",
    "methods": {},
    "version": 1
  },
  "storageLayout": {
    "storage": [
      {
        "astId": 246,
        "contract": "contracts/DTKHero.sol:DTKHero",
        "label": "_name",
        "offset": 0,
        "slot": "0",
        "type": "t_string_storage"
      },
      {
        "astId": 248,
        "contract": "contracts/DTKHero.sol:DTKHero",
        "label": "_symbol",
        "offset": 0,
        "slot": "1",
        "type": "t_string_storage"
      },
      {
        "astId": 252,
        "contract": "contracts/DTKHero.sol:DTKHero",
        "label": "_owners",
        "offset": 0,
        "slot": "2",
        "type": "t_mapping(t_uint256,t_address)"
      },
      {
        "astId": 256,
        "contract": "contracts/DTKHero.sol:DTKHero",
        "label": "_balances",
        "offset": 0,
        "slot": "3",
        "type": "t_mapping(t_address,t_uint256)"
      },
      {
        "astId": 260,
        "contract": "contracts/DTKHero.sol:DTKHero",
        "label": "_tokenApprovals",
        "offset": 0,
        "slot": "4",
        "type": "t_mapping(t_uint256,t_address)"
      },
      {
        "astId": 266,
        "contract": "contracts/DTKHero.sol:DTKHero",
        "label": "_operatorApprovals",
        "offset": 0,
        "slot": "5",
        "type": "t_mapping(t_address,t_mapping(t_address,t_bool))"
      },
      {
        "astId": 130,
        "contract": "contracts/DTKHero.sol:DTKHero",
        "label": "_paused",
        "offset": 0,
        "slot": "6",
        "type": "t_bool"
      },
      {
        "astId": 7,
        "contract": "contracts/DTKHero.sol:DTKHero",
        "label": "_owner",
        "offset": 1,
        "slot": "6",
        "type": "t_address"
      },
      {
        "astId": 2922,
        "contract": "contracts/DTKHero.sol:DTKHero",
        "label": "supply",
        "offset": 0,
        "slot": "7",
        "type": "t_struct(Counter)1751_storage"
      },
      {
        "astId": 2925,
        "contract": "contracts/DTKHero.sol:DTKHero",
        "label": "minted",
        "offset": 0,
        "slot": "8",
        "type": "t_struct(Counter)1751_storage"
      },
      {
        "astId": 2927,
        "contract": "contracts/DTKHero.sol:DTKHero",
        "label": "maxSupply",
        "offset": 0,
        "slot": "9",
        "type": "t_uint256"
      },
      {
        "astId": 2929,
        "contract": "contracts/DTKHero.sol:DTKHero",
        "label": "authSigner",
        "offset": 0,
        "slot": "10",
        "type": "t_address"
      },
      {
        "astId": 2933,
        "contract": "contracts/DTKHero.sol:DTKHero",
        "label": "sigNonces",
        "offset": 0,
        "slot": "11",
        "type": "t_mapping(t_address,t_uint256)"
      },
      {
        "astId": 2937,
        "contract": "contracts/DTKHero.sol:DTKHero",
        "label": "depositedTokens",
        "offset": 0,
        "slot": "12",
        "type": "t_mapping(t_uint256,t_bool)"
      },
      {
        "astId": 2940,
        "contract": "contracts/DTKHero.sol:DTKHero",
        "label": "uriPrefix",
        "offset": 0,
        "slot": "13",
        "type": "t_string_storage"
      },
      {
        "astId": 2943,
        "contract": "contracts/DTKHero.sol:DTKHero",
        "label": "uriSuffix",
        "offset": 0,
        "slot": "14",
        "type": "t_string_storage"
      }
    ],
    "types": {
      "t_address": {
        "encoding": "inplace",
        "label": "address",
        "numberOfBytes": "20"
      },
      "t_bool": {
        "encoding": "inplace",
        "label": "bool",
        "numberOfBytes": "1"
      },
      "t_mapping(t_address,t_bool)": {
        "encoding": "mapping",
        "key": "t_address",
        "label": "mapping(address => bool)",
        "numberOfBytes": "32",
        "value": "t_bool"
      },
      "t_mapping(t_address,t_mapping(t_address,t_bool))": {
        "encoding": "mapping",
        "key": "t_address",
        "label": "mapping(address => mapping(address => bool))",
        "numberOfBytes": "32",
        "value": "t_mapping(t_address,t_bool)"
      },
      "t_mapping(t_address,t_uint256)": {
        "encoding": "mapping",
        "key": "t_address",
        "label": "mapping(address => uint256)",
        "numberOfBytes": "32",
        "value": "t_uint256"
      },
      "t_mapping(t_uint256,t_address)": {
        "encoding": "mapping",
        "key": "t_uint256",
        "label": "mapping(uint256 => address)",
        "numberOfBytes": "32",
        "value": "t_address"
      },
      "t_mapping(t_uint256,t_bool)": {
        "encoding": "mapping",
        "key": "t_uint256",
        "label": "mapping(uint256 => bool)",
        "numberOfBytes": "32",
        "value": "t_bool"
      },
      "t_string_storage": {
        "encoding": "bytes",
        "label": "string",
        "numberOfBytes": "32"
      },
      "t_struct(Counter)1751_storage": {
        "encoding": "inplace",
        "label": "struct Counters.Counter",
        "members": [
          {
            "astId": 1750,
            "contract": "contracts/DTKHero.sol:DTKHero",
            "label": "_value",
            "offset": 0,
            "slot": "0",
            "type": "t_uint256"
          }
        ],
        "numberOfBytes": "32"
      },
      "t_uint256": {
        "encoding": "inplace",
        "label": "uint256",
        "numberOfBytes": "32"
      }
    }
  }
}