{
  "address": "0x9A6B2bC6CFd22dDfA8D581e1af7549841CDDA941",
  "abi": [
    {
      "inputs": [
        {
          "internalType": "address",
          "name": "_authSigner",
          "type": "address"
        },
        {
          "internalType": "uint256",
          "name": "_maxSupply",
          "type": "uint256"
        }
      ],
      "stateMutability": "nonpayable",
      "type": "constructor"
    },
    {
      "anonymous": false,
      "inputs": [
        {
          "indexed": true,
          "internalType": "address",
          "name": "owner",
          "type": "address"
        },
        {
          "indexed": true,
          "internalType": "address",
          "name": "approved",
          "type": "address"
        },
        {
          "indexed": true,
          "internalType": "uint256",
          "name": "tokenId",
          "type": "uint256"
        }
      ],
      "name": "Approval",
      "type": "event"
    },
    {
      "anonymous": false,
      "inputs": [
        {
          "indexed": true,
          "internalType": "address",
          "name": "owner",
          "type": "address"
        },
        {
          "indexed": true,
          "internalType": "address",
          "name": "operator",
          "type": "address"
        },
        {
          "indexed": false,
          "internalType": "bool",
          "name": "approved",
          "type": "bool"
        }
      ],
      "name": "ApprovalForAll",
      "type": "event"
    },
    {
      "anonymous": false,
      "inputs": [
        {
          "indexed": true,
          "internalType": "address",
          "name": "owner",
          "type": "address"
        },
        {
          "indexed": true,
          "internalType": "uint256",
          "name": "tokenId",
          "type": "uint256"
        }
      ],
      "name": "Burn",
      "type": "event"
    },
    {
      "anonymous": false,
      "inputs": [
        {
          "indexed": true,
          "internalType": "address",
          "name": "owner",
          "type": "address"
        },
        {
          "indexed": true,
          "internalType": "uint256",
          "name": "tokenId",
          "type": "uint256"
        },
        {
          "indexed": true,
          "internalType": "uint256",
          "name": "nonce",
          "type": "uint256"
        }
      ],
      "name": "Deposit",
      "type": "event"
    },
    {
      "anonymous": false,
      "inputs": [
        {
          "indexed": true,
          "internalType": "address",
          "name": "minter",
          "type": "address"
        },
        {
          "indexed": true,
          "internalType": "uint256",
          "name": "tokenId",
          "type": "uint256"
        },
        {
          "indexed": true,
          "internalType": "uint256",
          "name": "nonce",
          "type": "uint256"
        }
      ],
      "name": "Mint",
      "type": "event"
    },
    {
      "anonymous": false,
      "inputs": [
        {
          "indexed": true,
          "internalType": "address",
          "name": "previousOwner",
          "type": "address"
        },
        {
          "indexed": true,
          "internalType": "address",
          "name": "newOwner",
          "type": "address"
        }
      ],
      "name": "OwnershipTransferred",
      "type": "event"
    },
    {
      "anonymous": false,
      "inputs": [
        {
          "indexed": false,
          "internalType": "address",
          "name": "account",
          "type": "address"
        }
      ],
      "name": "Paused",
      "type": "event"
    },
    {
      "anonymous": false,
      "inputs": [
        {
          "indexed": true,
          "internalType": "address",
          "name": "from",
          "type": "address"
        },
        {
          "indexed": true,
          "internalType": "address",
          "name": "to",
          "type": "address"
        },
        {
          "indexed": true,
          "internalType": "uint256",
          "name": "tokenId",
          "type": "uint256"
        }
      ],
      "name": "Transfer",
      "type": "event"
    },
    {
      "anonymous": false,
      "inputs": [
        {
          "indexed": false,
          "internalType": "address",
          "name": "account",
          "type": "address"
        }
      ],
      "name": "Unpaused",
      "type": "event"
    },
    {
      "anonymous": false,
      "inputs": [
        {
          "indexed": true,
          "internalType": "address",
          "name": "owner",
          "type": "address"
        },
        {
          "indexed": true,
          "internalType": "uint256",
          "name": "tokenId",
          "type": "uint256"
        },
        {
          "indexed": true,
          "internalType": "uint256",
          "name": "nonce",
          "type": "uint256"
        }
      ],
      "name": "Withdraw",
      "type": "event"
    },
    {
      "inputs": [
        {
          "internalType": "address",
          "name": "to",
          "type": "address"
        },
        {
          "internalType": "uint256",
          "name": "tokenId",
          "type": "uint256"
        }
      ],
      "name": "approve",
      "outputs": [],
      "stateMutability": "nonpayable",
      "type": "function"
    },
    {
      "inputs": [],
      "name": "authSigner",
      "outputs": [
        {
          "internalType": "address",
          "name": "",
          "type": "address"
        }
      ],
      "stateMutability": "view",
      "type": "function"
    },
    {
      "inputs": [
        {
          "internalType": "address",
          "name": "owner",
          "type": "address"
        }
      ],
      "name": "balanceOf",
      "outputs": [
        {
          "internalType": "uint256",
          "name": "",
          "type": "uint256"
        }
      ],
      "stateMutability": "view",
      "type": "function"
    },
    {
      "inputs": [
        {
          "internalType": "uint256",
          "name": "tokenId",
          "type": "uint256"
        }
      ],
      "name": "burn",
      "outputs": [],
      "stateMutability": "nonpayable",
      "type": "function"
    },
    {
      "inputs": [
        {
          "internalType": "uint256",
          "name": "tokenId",
          "type": "uint256"
        },
        {
          "internalType": "uint256",
          "name": "_nonce",
          "type": "uint256"
        },
        {
          "internalType": "bytes",
          "name": "sig",
          "type": "bytes"
        }
      ],
      "name": "deposit",
      "outputs": [],
      "stateMutability": "nonpayable",
      "type": "function"
    },
    {
      "inputs": [
        {
          "internalType": "uint256",
          "name": "tokenId",
          "type": "uint256"
        }
      ],
      "name": "getApproved",
      "outputs": [
        {
          "internalType": "address",
          "name": "",
          "type": "address"
        }
      ],
      "stateMutability": "view",
      "type": "function"
    },
    {
      "inputs": [
        {
          "internalType": "address",
          "name": "owner",
          "type": "address"
        },
        {
          "internalType": "address",
          "name": "operator",
          "type": "address"
        }
      ],
      "name": "isApprovedForAll",
      "outputs": [
        {
          "internalType": "bool",
          "name": "",
          "type": "bool"
        }
      ],
      "stateMutability": "view",
      "type": "function"
    },
    {
      "inputs": [],
      "name": "maxSupply",
      "outputs": [
        {
          "internalType": "uint256",
          "name": "",
          "type": "uint256"
        }
      ],
      "stateMutability": "view",
      "type": "function"
    },
    {
      "inputs": [
        {
          "internalType": "uint256",
          "name": "nonce",
          "type": "uint256"
        },
        {
          "internalType": "bytes",
          "name": "sig",
          "type": "bytes"
        }
      ],
      "name": "mint",
      "outputs": [],
      "stateMutability": "nonpayable",
      "type": "function"
    },
    {
      "inputs": [],
      "name": "name",
      "outputs": [
        {
          "internalType": "string",
          "name": "",
          "type": "string"
        }
      ],
      "stateMutability": "view",
      "type": "function"
    },
    {
      "inputs": [],
      "name": "owner",
      "outputs": [
        {
          "internalType": "address",
          "name": "",
          "type": "address"
        }
      ],
      "stateMutability": "view",
      "type": "function"
    },
    {
      "inputs": [
        {
          "internalType": "uint256",
          "name": "tokenId",
          "type": "uint256"
        }
      ],
      "name": "ownerOf",
      "outputs": [
        {
          "internalType": "address",
          "name": "",
          "type": "address"
        }
      ],
      "stateMutability": "view",
      "type": "function"
    },
    {
      "inputs": [],
      "name": "pause",
      "outputs": [],
      "stateMutability": "nonpayable",
      "type": "function"
    },
    {
      "inputs": [],
      "name": "paused",
      "outputs": [
        {
          "internalType": "bool",
          "name": "",
          "type": "bool"
        }
      ],
      "stateMutability": "view",
      "type": "function"
    },
    {
      "inputs": [],
      "name": "renounceOwnership",
      "outputs": [],
      "stateMutability": "nonpayable",
      "type": "function"
    },
    {
      "inputs": [
        {
          "internalType": "address",
          "name": "from",
          "type": "address"
        },
        {
          "internalType": "address",
          "name": "to",
          "type": "address"
        },
        {
          "internalType": "uint256",
          "name": "tokenId",
          "type": "uint256"
        }
      ],
      "name": "safeTransferFrom",
      "outputs": [],
      "stateMutability": "nonpayable",
      "type": "function"
    },
    {
      "inputs": [
        {
          "internalType": "address",
          "name": "from",
          "type": "address"
        },
        {
          "internalType": "address",
          "name": "to",
          "type": "address"
        },
        {
          "internalType": "uint256",
          "name": "tokenId",
          "type": "uint256"
        },
        {
          "internalType": "bytes",
          "name": "data",
          "type": "bytes"
        }
      ],
      "name": "safeTransferFrom",
      "outputs": [],
      "stateMutability": "nonpayable",
      "type": "function"
    },
    {
      "inputs": [
        {
          "internalType": "address",
          "name": "operator",
          "type": "address"
        },
        {
          "internalType": "bool",
          "name": "approved",
          "type": "bool"
        }
      ],
      "name": "setApprovalForAll",
      "outputs": [],
      "stateMutability": "nonpayable",
      "type": "function"
    },
    {
      "inputs": [
        {
          "internalType": "string",
          "name": "_uriPrefix",
          "type": "string"
        }
      ],
      "name": "setUriPrefix",
      "outputs": [],
      "stateMutability": "nonpayable",
      "type": "function"
    },
    {
      "inputs": [
        {
          "internalType": "string",
          "name": "_uriSuffix",
          "type": "string"
        }
      ],
      "name": "setUriSuffix",
      "outputs": [],
      "stateMutability": "nonpayable",
      "type": "function"
    },
    {
      "inputs": [
        {
          "internalType": "bytes4",
          "name": "interfaceId",
          "type": "bytes4"
        }
      ],
      "name": "supportsInterface",
      "outputs": [
        {
          "internalType": "bool",
          "name": "",
          "type": "bool"
        }
      ],
      "stateMutability": "view",
      "type": "function"
    },
    {
      "inputs": [],
      "name": "symbol",
      "outputs": [
        {
          "internalType": "string",
          "name": "",
          "type": "string"
        }
      ],
      "stateMutability": "view",
      "type": "function"
    },
    {
      "inputs": [
        {
          "internalType": "uint256",
          "name": "tokenId",
          "type": "uint256"
        }
      ],
      "name": "tokenDepositStatus",
      "outputs": [
        {
          "internalType": "bool",
          "name": "",
          "type": "bool"
        }
      ],
      "stateMutability": "view",
      "type": "function"
    },
    {
      "inputs": [
        {
          "internalType": "uint256",
          "name": "tokenId",
          "type": "uint256"
        }
      ],
      "name": "tokenURI",
      "outputs": [
        {
          "internalType": "string",
          "name": "",
          "type": "string"
        }
      ],
      "stateMutability": "view",
      "type": "function"
    },
    {
      "inputs": [
        {
          "internalType": "address",
          "name": "owner",
          "type": "address"
        }
      ],
      "name": "tokensOfOwner",
      "outputs": [
        {
          "components": [
            {
              "internalType": "uint256",
              "name": "tokenId",
              "type": "uint256"
            },
            {
              "internalType": "bool",
              "name": "deposited",
              "type": "bool"
            }
          ],
          "internalType": "struct TokenInfo[]",
          "name": "",
          "type": "tuple[]"
        }
      ],
      "stateMutability": "view",
      "type": "function"
    },
    {
      "inputs": [],
      "name": "totalSupply",
      "outputs": [
        {
          "internalType": "uint256",
          "name": "",
          "type": "uint256"
        }
      ],
      "stateMutability": "view",
      "type": "function"
    },
    {
      "inputs": [
        {
          "internalType": "address",
          "name": "from",
          "type": "address"
        },
        {
          "internalType": "address",
          "name": "to",
          "type": "address"
        },
        {
          "internalType": "uint256",
          "name": "tokenId",
          "type": "uint256"
        }
      ],
      "name": "transferFrom",
      "outputs": [],
      "stateMutability": "nonpayable",
      "type": "function"
    },
    {
      "inputs": [
        {
          "internalType": "address",
          "name": "newOwner",
          "type": "address"
        }
      ],
      "name": "transferOwnership",
      "outputs": [],
      "stateMutability": "nonpayable",
      "type": "function"
    },
    {
      "inputs": [],
      "name": "unpause",
      "outputs": [],
      "stateMutability": "nonpayable",
      "type": "function"
    },
    {
      "inputs": [],
      "name": "uriPrefix",
      "outputs": [
        {
          "internalType": "string",
          "name": "",
          "type": "string"
        }
      ],
      "stateMutability": "view",
      "type": "function"
    },
    {
      "inputs": [],
      "name": "uriSuffix",
      "outputs": [
        {
          "internalType": "string",
          "name": "",
          "type": "string"
        }
      ],
      "stateMutability": "view",
      "type": "function"
    },
    {
      "inputs": [
        {
          "internalType": "uint256",
          "name": "tokenId",
          "type": "uint256"
        },
        {
          "internalType": "uint256",
          "name": "_nonce",
          "type": "uint256"
        },
        {
          "internalType": "bytes",
          "name": "sig",
          "type": "bytes"
        }
      ],
      "name": "withdraw",
      "outputs": [],
      "stateMutability": "nonpayable",
      "type": "function"
    }
  ],
  "transactionHash": "0x1139f03bfc1d16084cd2080fdde64c0bcf9055c8b8cd239f26a013effd31b6dc",
  "args": [
    "0x7d14F396d347C960bC2774141D51DA59Be408F71",
    3000
  ],
  "numDeployments": 3,
  "solcInputHash": "ca8954eacce28f10b69b8ecf42f88e0c",
  "bytecode": "0x60a060405260006080908152600c906200001a908262000258565b50604080516020810190915260008152600d9062000039908262000258565b503480156200004757600080fd5b5060405162002a2b38038062002a2b8339810160408190526200006a9162000324565b6040518060400160405280600e81526020016d090cae4de9af2e6e8cae4f284def60931b815250604051806040016040528060038152602001622426a160e91b8152508160009081620000be919062000258565b506001620000cd828262000258565b50506006805460ff1916905550620000e53362000159565b6001600160a01b0382166200012f5760405162461bcd60e51b815260206004820152600c60248201526b24b73b30b634b21030b2323960a11b604482015260640160405180910390fd5b600980546001600160a01b0319166001600160a01b03939093169290921790915560085562000360565b600680546001600160a01b03838116610100818102610100600160a81b031985161790945560405193909204169182907f8be0079c531659141344cd1fd0a4f28419497f9722a3daafe3b4186f6b6457e090600090a35050565b634e487b7160e01b600052604160045260246000fd5b600181811c90821680620001de57607f821691505b602082108103620001ff57634e487b7160e01b600052602260045260246000fd5b50919050565b601f8211156200025357600081815260208120601f850160051c810160208610156200022e5750805b601f850160051c820191505b818110156200024f578281556001016200023a565b5050505b505050565b81516001600160401b03811115620002745762000274620001b3565b6200028c81620002858454620001c9565b8462000205565b602080601f831160018114620002c45760008415620002ab5750858301515b600019600386901b1c1916600185901b1785556200024f565b600085815260208120601f198616915b82811015620002f557888601518255948401946001909101908401620002d4565b5085821015620003145787850151600019600388901b60f8161c191681555b5050505050600190811b01905550565b600080604083850312156200033857600080fd5b82516001600160a01b03811681146200035057600080fd5b6020939093015192949293505050565b6126bb80620003706000396000f3fe608060405234801561001057600080fd5b50600436106101f05760003560e01c8063744fb6ca1161010f578063aa0b7db7116100a2578063d5abeb0111610071578063d5abeb0114610413578063db7fd4081461041c578063e985e9c51461042f578063f2fde38b1461044257600080fd5b8063aa0b7db7146103c7578063b42348ac146103da578063b88d4fde146103ed578063c87b56dd1461040057600080fd5b80638da5cb5b116100de5780638da5cb5b1461037357806395d89b411461038957806397cebbec14610391578063a22cb465146103b457600080fd5b8063744fb6ca146103255780637ec4a659146103385780638456cb591461034b5780638462151c1461035357600080fd5b806342842e0e1161018757806362b99ad41161015657806362b99ad4146102ef5780636352211e146102f757806370a082311461030a578063715018a61461031d57600080fd5b806342842e0e146102b657806342966c68146102c95780635503a0e8146102dc5780635c975abb146102e457600080fd5b806316ba10e0116101c357806316ba10e01461027257806318160ddd1461028557806323b872dd1461029b5780633f4ba83a146102ae57600080fd5b806301ffc9a7146101f557806306fdde031461021d578063081812fc14610232578063095ea7b31461025d575b600080fd5b610208610203366004611e12565b610455565b60405190151581526020015b60405180910390f35b6102256104a7565b6040516102149190611e7f565b610245610240366004611e92565b610539565b6040516001600160a01b039091168152602001610214565b61027061026b366004611ec7565b610560565b005b610270610280366004611f7d565b61067a565b61028d610692565b604051908152602001610214565b6102706102a9366004611fc6565b6106a2565b6102706106dc565b6102706102c4366004611fc6565b6106ee565b6102706102d7366004611e92565b610728565b6102256107d0565b60065460ff16610208565b61022561085e565b610245610305366004611e92565b61086b565b61028d610318366004612002565b6108cb565b610270610951565b61027061033336600461203d565b610963565b610270610346366004611f7d565b610b0d565b610270610b21565b610366610361366004612002565b610b31565b604051610214919061208d565b60065461010090046001600160a01b0316610245565b610225610c8f565b61020861039f366004611e92565b6000908152600b602052604090205460ff1690565b6102706103c23660046120de565b610c9e565b6102706103d536600461203d565b610ca9565b600954610245906001600160a01b031681565b6102706103fb36600461211a565b610e26565b61022561040e366004611e92565b610e67565b61028d60085481565b61027061042a366004612182565b610ed1565b61020861043d3660046121c9565b611046565b610270610450366004612002565b611074565b60006001600160e01b031982166380ac58cd60e01b148061048657506001600160e01b03198216635b5e139f60e01b145b806104a157506301ffc9a760e01b6001600160e01b03198316145b92915050565b6060600080546104b6906121fc565b80601f01602080910402602001604051908101604052809291908181526020018280546104e2906121fc565b801561052f5780601f106105045761010080835404028352916020019161052f565b820191906000526020600020905b81548152906001019060200180831161051257829003601f168201915b5050505050905090565b6000610544826110ed565b506000908152600460205260409020546001600160a01b031690565b600061056b8261086b565b9050806001600160a01b0316836001600160a01b0316036105dd5760405162461bcd60e51b815260206004820152602160248201527f4552433732313a20617070726f76616c20746f2063757272656e74206f776e656044820152603960f91b60648201526084015b60405180910390fd5b336001600160a01b03821614806105f957506105f98133611046565b61066b5760405162461bcd60e51b815260206004820152603e60248201527f4552433732313a20617070726f76652063616c6c6572206973206e6f7420746f60448201527f6b656e206f776e6572206e6f7220617070726f76656420666f7220616c6c000060648201526084016105d4565b610675838361114c565b505050565b6106826111ba565b600d61068e8282612284565b5050565b600061069d60075490565b905090565b6000818152600b602052604090205460ff16156106d15760405162461bcd60e51b81526004016105d490612344565b61067583838361121a565b6106e46111ba565b6106ec611291565b565b6000818152600b602052604090205460ff161561071d5760405162461bcd60e51b81526004016105d490612344565b6106758383836112e3565b806107316112fe565b61073a816110ed565b610745335b82611344565b6107615760405162461bcd60e51b81526004016105d49061237b565b6000818152600b602052604090205460ff16156107905760405162461bcd60e51b81526004016105d490612344565b610799826113a3565b604051829033907fcc16f5dbb4873280815c1ee09dbd06736cffcc184412cf7a71a0fdb75d397ca590600090a361068e600761144a565b600d80546107dd906121fc565b80601f0160208091040260200160405190810160405280929190818152602001828054610809906121fc565b80156108565780601f1061082b57610100808354040283529160200191610856565b820191906000526020600020905b81548152906001019060200180831161083957829003601f168201915b505050505081565b600c80546107dd906121fc565b6000818152600260205260408120546001600160a01b0316806104a15760405162461bcd60e51b8152602060048201526018602482015277115490cdcc8c4e881a5b9d985b1a59081d1bdad95b88125160421b60448201526064016105d4565b60006001600160a01b0382166109355760405162461bcd60e51b815260206004820152602960248201527f4552433732313a2061646472657373207a65726f206973206e6f7420612076616044820152683634b21037bbb732b960b91b60648201526084016105d4565b506001600160a01b031660009081526003602052604090205490565b6109596111ba565b6106ec60006114a1565b8233838361096f6112fe565b610978846110ed565b6109828385611344565b61099e5760405162461bcd60e51b81526004016105d49061237b565b6000848152600b602052604090205460ff166109fc5760405162461bcd60e51b815260206004820152601c60248201527f546f6b656e20686173206e6f74206265656e206465706f73697465640000000060448201526064016105d4565b6001600160a01b0383166000908152600a6020908152604080832085845290915290205460ff1615610a405760405162461bcd60e51b81526004016105d4906123a1565b610a826040518060400160405280601f81526020017f77697468647261772875696e743235362c75696e743235362c62797465732900815250848685856114fb565b610a9e5760405162461bcd60e51b81526004016105d4906123d1565b336000818152600a602090815260408083208a845282528083208054600160ff19918216179091558b8452600b90925280832080549092169091555188928a9290917ff279e6a1f5e320cca91135676d9cb6e44ca8a08c0b88342bcdb1144f6511b5689190a450505050505050565b610b156111ba565b600c61068e8282612284565b610b296111ba565b6106ec6115a8565b60606000610b3e836108cb565b905060008167ffffffffffffffff811115610b5b57610b5b611ef1565b604051908082528060200260200182016040528015610ba057816020015b6040805180820190915260008082526020820152815260200190600190039081610b795790505b5090506000805b8381108015610bbd5750610bb9610692565b8211155b15610c85576000828152600260205260409020546001600160a01b031615610c73576000610bea8361086b565b9050866001600160a01b0316816001600160a01b031603610c715782848381518110610c1857610c186123fc565b602090810291909101810151919091526000848152600b9091526040902054845160ff90911690859084908110610c5157610c516123fc565b60209081029190910181015191151591015281610c6d81612428565b9250505b505b81610c7d81612428565b925050610ba7565b5090949350505050565b6060600180546104b6906121fc565b61068e3383836115e5565b82338383610cb56112fe565b610cbe846110ed565b610cc88385611344565b610ce45760405162461bcd60e51b81526004016105d49061237b565b6000848152600b602052604090205460ff1615610d135760405162461bcd60e51b81526004016105d490612344565b6001600160a01b0383166000908152600a6020908152604080832085845290915290205460ff1615610d575760405162461bcd60e51b81526004016105d4906123a1565b610d996040518060400160405280601e81526020017f6465706f7369742875696e743235362c75696e743235362c6279746573290000815250848685856114fb565b610db55760405162461bcd60e51b81526004016105d4906123d1565b336000818152600a602090815260408083208a845282528083208054600160ff1991821681179092558c8552600b9093528184208054909316179091555188928a9290917f90890809c654f11d6e72a28fa60149770a0d11ec6c92319d6ceb2bb0a4ea1a159190a450505050505050565b6000828152600b602052604090205460ff1615610e555760405162461bcd60e51b81526004016105d490612344565b610e61848484846116b3565b50505050565b6060610e72826110ed565b6000610e7c6116e6565b90506000815111610e9c5760405180602001604052806000815250610eca565b80610ea6846116f5565b600d604051602001610eba93929190612441565b6040516020818303038152906040525b9392505050565b338282610edc6112fe565b6001600160a01b0383166000908152600a6020908152604080832085845290915290205460ff1615610f205760405162461bcd60e51b81526004016105d4906123a1565b610f616040518060400160405280601b81526020017f6d696e742875696e743235362c75696e743235362c62797465732900000000008152508484846117f6565b610f7d5760405162461bcd60e51b81526004016105d4906123d1565b600854600754610f8e9060016124e1565b1115610fd35760405162461bcd60e51b81526020600482015260146024820152734d617820737570706c792065786365656465642160601b60448201526064016105d4565b610fdf33600754611840565b336000818152600a60209081526040808320898452909152808220805460ff191660011790556007549051889391927f4c209b5fc8ad50758f13e2e1088ba56a560dff690a1c6fef26394f4c03821c4f91a461103f600780546001019055565b5050505050565b6001600160a01b03918216600090815260056020908152604080832093909416825291909152205460ff1690565b61107c6111ba565b6001600160a01b0381166110e15760405162461bcd60e51b815260206004820152602660248201527f4f776e61626c653a206e6577206f776e657220697320746865207a65726f206160448201526564647265737360d01b60648201526084016105d4565b6110ea816114a1565b50565b6000818152600260205260409020546001600160a01b03166110ea5760405162461bcd60e51b8152602060048201526018602482015277115490cdcc8c4e881a5b9d985b1a59081d1bdad95b88125160421b60448201526064016105d4565b600081815260046020526040902080546001600160a01b0319166001600160a01b03841690811790915581906111818261086b565b6001600160a01b03167f8c5be1e5ebec7d5bd14f71427d1e84f3dd0314c0f7b2291e5b200ac8c7c3b92560405160405180910390a45050565b6006546001600160a01b036101009091041633146106ec5760405162461bcd60e51b815260206004820181905260248201527f4f776e61626c653a2063616c6c6572206973206e6f7420746865206f776e657260448201526064016105d4565b6112233361073f565b6112865760405162461bcd60e51b815260206004820152602e60248201527f4552433732313a2063616c6c6572206973206e6f7420746f6b656e206f776e6560448201526d1c881b9bdc88185c1c1c9bdd995960921b60648201526084016105d4565b61067583838361185a565b611299611a01565b6006805460ff191690557f5db9ee0a495bf2e6ff9c91a7834c1ba4fdd244a5e8aa4e537bd38aeae4b073aa335b6040516001600160a01b03909116815260200160405180910390a1565b61067583838360405180602001604052806000815250610e26565b60065460ff16156106ec5760405162461bcd60e51b815260206004820152601060248201526f14185d5cd8589b194e881c185d5cd95960821b60448201526064016105d4565b6000806113508361086b565b9050806001600160a01b0316846001600160a01b0316148061137757506113778185611046565b8061139b5750836001600160a01b031661139084610539565b6001600160a01b0316145b949350505050565b60006113ae8261086b565b90506113bc81600084611a4a565b6113c760008361114c565b6001600160a01b03811660009081526003602052604081208054600192906113f09084906124f4565b909155505060008281526002602052604080822080546001600160a01b0319169055518391906001600160a01b038416907fddf252ad1be2c89b69c2b068fc378daa952ba7f163c4a11628f55a4df523b3ef908390a45050565b8054806114995760405162461bcd60e51b815260206004820152601b60248201527f436f756e7465723a2064656372656d656e74206f766572666c6f77000000000060448201526064016105d4565b600019019055565b600680546001600160a01b03838116610100818102610100600160a81b031985161790945560405193909204169182907f8be0079c531659141344cd1fd0a4f28419497f9722a3daafe3b4186f6b6457e090600090a35050565b60008061157a873088888860405160200161151a959493929190612507565b60408051601f1981840301815282825280516020918201207f19457468657265756d205369676e6564204d6573736167653a0a33320000000084830152603c8085019190915282518085039091018152605c909301909152815191012090565b6009549091506001600160a01b03166115938285611a55565b6001600160a01b031614979650505050505050565b6115b06112fe565b6006805460ff191660011790557f62e78cea01bee320cd4e420270b5ea74000d11b0c9f74754ebdbfc544b05a2586112c63390565b816001600160a01b0316836001600160a01b0316036116465760405162461bcd60e51b815260206004820152601960248201527f4552433732313a20617070726f766520746f2063616c6c65720000000000000060448201526064016105d4565b6001600160a01b03838116600081815260056020908152604080832094871680845294825291829020805460ff191686151590811790915591519182527f17307eab39ab6107e8899845ad3d59bd9653f200f220920489ca2b5937696c31910160405180910390a3505050565b6116be84848461185a565b6116ca84848484611ad4565b610e615760405162461bcd60e51b81526004016105d490612555565b6060600c80546104b6906121fc565b60608160000361171c5750506040805180820190915260018152600360fc1b602082015290565b8160005b8115611746578061173081612428565b915061173f9050600a836125bd565b9150611720565b60008167ffffffffffffffff81111561176157611761611ef1565b6040519080825280601f01601f19166020018201604052801561178b576020820181803683370190505b5090505b841561139b576117a06001836124f4565b91506117ad600a866125d1565b6117b89060306124e1565b60f81b8183815181106117cd576117cd6123fc565b60200101906001600160f81b031916908160001a9053506117ef600a866125bd565b945061178f565b6000806118138630878760405160200161151a94939291906125e5565b6009549091506001600160a01b031661182c8285611a55565b6001600160a01b0316149695505050505050565b61068e828260405180602001604052806000815250611bd2565b826001600160a01b031661186d8261086b565b6001600160a01b0316146118d15760405162461bcd60e51b815260206004820152602560248201527f4552433732313a207472616e736665722066726f6d20696e636f72726563742060448201526437bbb732b960d91b60648201526084016105d4565b6001600160a01b0382166119335760405162461bcd60e51b8152602060048201526024808201527f4552433732313a207472616e7366657220746f20746865207a65726f206164646044820152637265737360e01b60648201526084016105d4565b61193e838383611a4a565b61194960008261114c565b6001600160a01b03831660009081526003602052604081208054600192906119729084906124f4565b90915550506001600160a01b03821660009081526003602052604081208054600192906119a09084906124e1565b909155505060008181526002602052604080822080546001600160a01b0319166001600160a01b0386811691821790925591518493918716917fddf252ad1be2c89b69c2b068fc378daa952ba7f163c4a11628f55a4df523b3ef91a4505050565b60065460ff166106ec5760405162461bcd60e51b815260206004820152601460248201527314185d5cd8589b194e881b9bdd081c185d5cd95960621b60448201526064016105d4565b610675838383611c05565b600080600080611a6485611c6c565b6040805160008152602081018083528b905260ff8516918101919091526060810183905260808101829052929550909350915060019060a0016020604051602081039080840390855afa158015611abf573d6000803e3d6000fd5b5050604051601f190151979650505050505050565b60006001600160a01b0384163b15611bca57604051630a85bd0160e11b81526001600160a01b0385169063150b7a0290611b1890339089908890889060040161262b565b6020604051808303816000875af1925050508015611b53575060408051601f3d908101601f19168201909252611b5091810190612668565b60015b611bb0573d808015611b81576040519150601f19603f3d011682016040523d82523d6000602084013e611b86565b606091505b508051600003611ba85760405162461bcd60e51b81526004016105d490612555565b805181602001fd5b6001600160e01b031916630a85bd0160e11b14905061139b565b50600161139b565b611bdc8383611cae565b611be96000848484611ad4565b6106755760405162461bcd60e51b81526004016105d490612555565b60065460ff16156106755760405162461bcd60e51b815260206004820152602b60248201527f4552433732315061757361626c653a20746f6b656e207472616e73666572207760448201526a1a1a5b19481c185d5cd95960aa1b60648201526084016105d4565b60008060008351604114611c925760405162461bcd60e51b81526004016105d4906123d1565b5050506020810151604082015160609092015160001a92909190565b6001600160a01b038216611d045760405162461bcd60e51b815260206004820181905260248201527f4552433732313a206d696e7420746f20746865207a65726f206164647265737360448201526064016105d4565b6000818152600260205260409020546001600160a01b031615611d695760405162461bcd60e51b815260206004820152601c60248201527f4552433732313a20746f6b656e20616c7265616479206d696e7465640000000060448201526064016105d4565b611d7560008383611a4a565b6001600160a01b0382166000908152600360205260408120805460019290611d9e9084906124e1565b909155505060008181526002602052604080822080546001600160a01b0319166001600160a01b03861690811790915590518392907fddf252ad1be2c89b69c2b068fc378daa952ba7f163c4a11628f55a4df523b3ef908290a45050565b6001600160e01b0319811681146110ea57600080fd5b600060208284031215611e2457600080fd5b8135610eca81611dfc565b60005b83811015611e4a578181015183820152602001611e32565b50506000910152565b60008151808452611e6b816020860160208601611e2f565b601f01601f19169290920160200192915050565b602081526000610eca6020830184611e53565b600060208284031215611ea457600080fd5b5035919050565b80356001600160a01b0381168114611ec257600080fd5b919050565b60008060408385031215611eda57600080fd5b611ee383611eab565b946020939093013593505050565b634e487b7160e01b600052604160045260246000fd5b600067ffffffffffffffff80841115611f2257611f22611ef1565b604051601f8501601f19908116603f01168101908282118183101715611f4a57611f4a611ef1565b81604052809350858152868686011115611f6357600080fd5b858560208301376000602087830101525050509392505050565b600060208284031215611f8f57600080fd5b813567ffffffffffffffff811115611fa657600080fd5b8201601f81018413611fb757600080fd5b61139b84823560208401611f07565b600080600060608486031215611fdb57600080fd5b611fe484611eab565b9250611ff260208501611eab565b9150604084013590509250925092565b60006020828403121561201457600080fd5b610eca82611eab565b600082601f83011261202e57600080fd5b610eca83833560208501611f07565b60008060006060848603121561205257600080fd5b8335925060208401359150604084013567ffffffffffffffff81111561207757600080fd5b6120838682870161201d565b9150509250925092565b602080825282518282018190526000919060409081850190868401855b828110156120d15781518051855286015115158685015292840192908501906001016120aa565b5091979650505050505050565b600080604083850312156120f157600080fd5b6120fa83611eab565b91506020830135801515811461210f57600080fd5b809150509250929050565b6000806000806080858703121561213057600080fd5b61213985611eab565b935061214760208601611eab565b925060408501359150606085013567ffffffffffffffff81111561216a57600080fd5b6121768782880161201d565b91505092959194509250565b6000806040838503121561219557600080fd5b82359150602083013567ffffffffffffffff8111156121b357600080fd5b6121bf8582860161201d565b9150509250929050565b600080604083850312156121dc57600080fd5b6121e583611eab565b91506121f360208401611eab565b90509250929050565b600181811c9082168061221057607f821691505b60208210810361223057634e487b7160e01b600052602260045260246000fd5b50919050565b601f82111561067557600081815260208120601f850160051c8101602086101561225d5750805b601f850160051c820191505b8181101561227c57828155600101612269565b505050505050565b815167ffffffffffffffff81111561229e5761229e611ef1565b6122b2816122ac84546121fc565b84612236565b602080601f8311600181146122e757600084156122cf5750858301515b600019600386901b1c1916600185901b17855561227c565b600085815260208120601f198616915b82811015612316578886015182559484019460019091019084016122f7565b50858210156123345787850151600019600388901b60f8161c191681555b5050505050600190811b01905550565b60208082526018908201527f546f6b656e20686173206265656e206465706f73697465640000000000000000604082015260600190565b6020808252600c908201526b155b985d5d1a1bdc9a5e995960a21b604082015260600190565b6020808252601690820152751b9bdb98d948185b1c9958591e4818dbdb9cdd5b595960521b604082015260600190565b602080825260119082015270496e76616c6964207369676e617475726560781b604082015260600190565b634e487b7160e01b600052603260045260246000fd5b634e487b7160e01b600052601160045260246000fd5b60006001820161243a5761243a612412565b5060010190565b6000845160206124548285838a01611e2f565b8551918401916124678184848a01611e2f565b8554920191600090612478816121fc565b6001828116801561249057600181146124a5576124d1565b60ff19841687528215158302870194506124d1565b896000528560002060005b848110156124c9578154898201529083019087016124b0565b505082870194505b50929a9950505050505050505050565b808201808211156104a1576104a1612412565b818103818111156104a1576104a1612412565b60008651612519818460208b01611e2f565b6bffffffffffffffffffffffff19606097881b8116919093019081529490951b1660148401526028830191909152604882015260680192915050565b60208082526032908201527f4552433732313a207472616e7366657220746f206e6f6e20455243373231526560408201527131b2b4bb32b91034b6b83632b6b2b73a32b960711b606082015260800190565b634e487b7160e01b600052601260045260246000fd5b6000826125cc576125cc6125a7565b500490565b6000826125e0576125e06125a7565b500690565b600085516125f7818460208a01611e2f565b6bffffffffffffffffffffffff19606096871b8116919093019081529390941b166014830152602882015260480192915050565b6001600160a01b038581168252841660208201526040810183905260806060820181905260009061265e90830184611e53565b9695505050505050565b60006020828403121561267a57600080fd5b8151610eca81611dfc56fea26469706673582212207c7ca8c125a6d2dda2ab65349fbfc935a73e02c155985e257879e401f0340fa364736f6c63430008110033",
  "devdoc": {
    "kind": "dev",
    "methods": {
      "approve(address,uint256)": {
        "details": "See {IERC721-approve}."
      },
      "balanceOf(address)": {
        "details": "See {IERC721-balanceOf}."
      },
      "getApproved(uint256)": {
        "details": "See {IERC721-getApproved}."
      },
      "isApprovedForAll(address,address)": {
        "details": "See {IERC721-isApprovedForAll}."
      },
      "name()": {
        "details": "See {IERC721Metadata-name}."
      },
      "owner()": {
        "details": "Returns the address of the current owner."
      },
      "ownerOf(uint256)": {
        "details": "See {IERC721-ownerOf}."
      },
      "paused()": {
        "details": "Returns true if the contract is paused, and false otherwise."
      },
      "renounceOwnership()": {
        "details": "Leaves the contract without owner. It will not be possible to call `onlyOwner` functions anymore. Can only be called by the current owner. NOTE: Renouncing ownership will leave the contract without an owner, thereby removing any functionality that is only available to the owner."
      },
      "safeTransferFrom(address,address,uint256)": {
        "details": "See {IERC721-safeTransferFrom}."
      },
      "safeTransferFrom(address,address,uint256,bytes)": {
        "details": "See {IERC721-safeTransferFrom}."
      },
      "setApprovalForAll(address,bool)": {
        "details": "See {IERC721-setApprovalForAll}."
      },
      "supportsInterface(bytes4)": {
        "details": "See {IERC165-supportsInterface}."
      },
      "symbol()": {
        "details": "See {IERC721Metadata-symbol}."
      },
      "tokenURI(uint256)": {
        "details": "See {IERC721Metadata-tokenURI}."
      },
      "transferFrom(address,address,uint256)": {
        "details": "See {IERC721-transferFrom}."
      },
      "transferOwnership(address)": {
        "details": "Transfers ownership of the contract to a new account (`newOwner`). Can only be called by the current owner."
      }
    },
    "version": 1
  },
  "userdoc": {
    "kind": "user",
    "methods": {},
    "version": 1
  },
  "storageLayout": {
    "storage": [
      {
        "astId": 246,
        "contract": "contracts/DTKHero.sol:DTKHero",
        "label": "_name",
        "offset": 0,
        "slot": "0",
        "type": "t_string_storage"
      },
      {
        "astId": 248,
        "contract": "contracts/DTKHero.sol:DTKHero",
        "label": "_symbol",
        "offset": 0,
        "slot": "1",
        "type": "t_string_storage"
      },
      {
        "astId": 252,
        "contract": "contracts/DTKHero.sol:DTKHero",
        "label": "_owners",
        "offset": 0,
        "slot": "2",
        "type": "t_mapping(t_uint256,t_address)"
      },
      {
        "astId": 256,
        "contract": "contracts/DTKHero.sol:DTKHero",
        "label": "_balances",
        "offset": 0,
        "slot": "3",
        "type": "t_mapping(t_address,t_uint256)"
      },
      {
        "astId": 260,
        "contract": "contracts/DTKHero.sol:DTKHero",
        "label": "_tokenApprovals",
        "offset": 0,
        "slot": "4",
        "type": "t_mapping(t_uint256,t_address)"
      },
      {
        "astId": 266,
        "contract": "contracts/DTKHero.sol:DTKHero",
        "label": "_operatorApprovals",
        "offset": 0,
        "slot": "5",
        "type": "t_mapping(t_address,t_mapping(t_address,t_bool))"
      },
      {
        "astId": 130,
        "contract": "contracts/DTKHero.sol:DTKHero",
        "label": "_paused",
        "offset": 0,
        "slot": "6",
        "type": "t_bool"
      },
      {
        "astId": 7,
        "contract": "contracts/DTKHero.sol:DTKHero",
        "label": "_owner",
        "offset": 1,
        "slot": "6",
        "type": "t_address"
      },
      {
        "astId": 1965,
        "contract": "contracts/DTKHero.sol:DTKHero",
        "label": "supply",
        "offset": 0,
        "slot": "7",
        "type": "t_struct(Counter)1608_storage"
      },
      {
        "astId": 1967,
        "contract": "contracts/DTKHero.sol:DTKHero",
        "label": "maxSupply",
        "offset": 0,
        "slot": "8",
        "type": "t_uint256"
      },
      {
        "astId": 1969,
        "contract": "contracts/DTKHero.sol:DTKHero",
        "label": "authSigner",
        "offset": 0,
        "slot": "9",
        "type": "t_address"
      },
      {
        "astId": 1975,
        "contract": "contracts/DTKHero.sol:DTKHero",
        "label": "sigNonces",
        "offset": 0,
        "slot": "10",
        "type": "t_mapping(t_address,t_mapping(t_uint256,t_bool))"
      },
      {
        "astId": 1979,
        "contract": "contracts/DTKHero.sol:DTKHero",
        "label": "depositedTokens",
        "offset": 0,
        "slot": "11",
        "type": "t_mapping(t_uint256,t_bool)"
      },
      {
        "astId": 1982,
        "contract": "contracts/DTKHero.sol:DTKHero",
        "label": "uriPrefix",
        "offset": 0,
        "slot": "12",
        "type": "t_string_storage"
      },
      {
        "astId": 1985,
        "contract": "contracts/DTKHero.sol:DTKHero",
        "label": "uriSuffix",
        "offset": 0,
        "slot": "13",
        "type": "t_string_storage"
      }
    ],
    "types": {
      "t_address": {
        "encoding": "inplace",
        "label": "address",
        "numberOfBytes": "20"
      },
      "t_bool": {
        "encoding": "inplace",
        "label": "bool",
        "numberOfBytes": "1"
      },
      "t_mapping(t_address,t_bool)": {
        "encoding": "mapping",
        "key": "t_address",
        "label": "mapping(address => bool)",
        "numberOfBytes": "32",
        "value": "t_bool"
      },
      "t_mapping(t_address,t_mapping(t_address,t_bool))": {
        "encoding": "mapping",
        "key": "t_address",
        "label": "mapping(address => mapping(address => bool))",
        "numberOfBytes": "32",
        "value": "t_mapping(t_address,t_bool)"
      },
      "t_mapping(t_address,t_mapping(t_uint256,t_bool))": {
        "encoding": "mapping",
        "key": "t_address",
        "label": "mapping(address => mapping(uint256 => bool))",
        "numberOfBytes": "32",
        "value": "t_mapping(t_uint256,t_bool)"
      },
      "t_mapping(t_address,t_uint256)": {
        "encoding": "mapping",
        "key": "t_address",
        "label": "mapping(address => uint256)",
        "numberOfBytes": "32",
        "value": "t_uint256"
      },
      "t_mapping(t_uint256,t_address)": {
        "encoding": "mapping",
        "key": "t_uint256",
        "label": "mapping(uint256 => address)",
        "numberOfBytes": "32",
        "value": "t_address"
      },
      "t_mapping(t_uint256,t_bool)": {
        "encoding": "mapping",
        "key": "t_uint256",
        "label": "mapping(uint256 => bool)",
        "numberOfBytes": "32",
        "value": "t_bool"
      },
      "t_string_storage": {
        "encoding": "bytes",
        "label": "string",
        "numberOfBytes": "32"
      },
      "t_struct(Counter)1608_storage": {
        "encoding": "inplace",
        "label": "struct Counters.Counter",
        "members": [
          {
            "astId": 1607,
            "contract": "contracts/DTKHero.sol:DTKHero",
            "label": "_value",
            "offset": 0,
            "slot": "0",
            "type": "t_uint256"
          }
        ],
        "numberOfBytes": "32"
      },
      "t_uint256": {
        "encoding": "inplace",
        "label": "uint256",
        "numberOfBytes": "32"
      }
    }
  }
}