{
  "address": "0xc6995aea638dC9d601b48e0Ceb16a6a8cD256FDf",
  "abi": [
    {
      "inputs": [
        {
          "internalType": "address",
          "name": "nftAddress",
          "type": "address"
        }
      ],
      "stateMutability": "nonpayable",
      "type": "constructor"
    },
    {
      "anonymous": false,
      "inputs": [
        {
          "indexed": true,
          "internalType": "address",
          "name": "erc721",
          "type": "address"
        },
        {
          "indexed": true,
          "internalType": "address",
          "name": "operator",
          "type": "address"
        },
        {
          "indexed": false,
          "internalType": "address",
          "name": "from",
          "type": "address"
        },
        {
          "indexed": true,
          "internalType": "uint256",
          "name": "tokenId",
          "type": "uint256"
        }
      ],
      "name": "ERC721Received",
      "type": "event"
    },
    {
      "anonymous": false,
      "inputs": [
        {
          "indexed": true,
          "internalType": "address",
          "name": "erc721Address",
          "type": "address"
        },
        {
          "indexed": true,
          "internalType": "address",
          "name": "to",
          "type": "address"
        },
        {
          "indexed": true,
          "internalType": "uint256",
          "name": "tokenId",
          "type": "uint256"
        }
      ],
      "name": "ERC721Transfer",
      "type": "event"
    },
    {
      "anonymous": false,
      "inputs": [
        {
          "indexed": true,
          "internalType": "address",
          "name": "previousOwner",
          "type": "address"
        },
        {
          "indexed": true,
          "internalType": "address",
          "name": "newOwner",
          "type": "address"
        }
      ],
      "name": "OwnershipTransferred",
      "type": "event"
    },
    {
      "anonymous": false,
      "inputs": [
        {
          "indexed": true,
          "internalType": "address",
          "name": "operator",
          "type": "address"
        },
        {
          "indexed": false,
          "internalType": "uint256",
          "name": "tokenId",
          "type": "uint256"
        }
      ],
      "name": "WithdrawDTKHero",
      "type": "event"
    },
    {
      "inputs": [
        {
          "internalType": "uint256",
          "name": "tokenId",
          "type": "uint256"
        }
      ],
      "name": "depositedDtkHeroOwner",
      "outputs": [
        {
          "internalType": "address",
          "name": "",
          "type": "address"
        }
      ],
      "stateMutability": "view",
      "type": "function"
    },
    {
      "inputs": [],
      "name": "getDtkHeroAddress",
      "outputs": [
        {
          "internalType": "address",
          "name": "",
          "type": "address"
        }
      ],
      "stateMutability": "view",
      "type": "function"
    },
    {
      "inputs": [
        {
          "internalType": "address",
          "name": "operator",
          "type": "address"
        },
        {
          "internalType": "address",
          "name": "from",
          "type": "address"
        },
        {
          "internalType": "uint256",
          "name": "tokenId",
          "type": "uint256"
        },
        {
          "internalType": "bytes",
          "name": "data",
          "type": "bytes"
        }
      ],
      "name": "onERC721Received",
      "outputs": [
        {
          "internalType": "bytes4",
          "name": "",
          "type": "bytes4"
        }
      ],
      "stateMutability": "nonpayable",
      "type": "function"
    },
    {
      "inputs": [],
      "name": "owner",
      "outputs": [
        {
          "internalType": "address",
          "name": "",
          "type": "address"
        }
      ],
      "stateMutability": "view",
      "type": "function"
    },
    {
      "inputs": [],
      "name": "renounceOwnership",
      "outputs": [],
      "stateMutability": "nonpayable",
      "type": "function"
    },
    {
      "inputs": [
        {
          "internalType": "address",
          "name": "erc721Address",
          "type": "address"
        },
        {
          "internalType": "address",
          "name": "to",
          "type": "address"
        },
        {
          "internalType": "uint256",
          "name": "tokenId",
          "type": "uint256"
        }
      ],
      "name": "transfer",
      "outputs": [],
      "stateMutability": "nonpayable",
      "type": "function"
    },
    {
      "inputs": [
        {
          "internalType": "address",
          "name": "newOwner",
          "type": "address"
        }
      ],
      "name": "transferOwnership",
      "outputs": [],
      "stateMutability": "nonpayable",
      "type": "function"
    },
    {
      "inputs": [
        {
          "internalType": "uint256",
          "name": "tokenId",
          "type": "uint256"
        }
      ],
      "name": "withdrawDTKHero",
      "outputs": [],
      "stateMutability": "nonpayable",
      "type": "function"
    }
  ],
  "transactionHash": "0xa26b65d95c1b90fb953bc1fbd526ad7b196f917100e06ca043fc608982454a4b",
  "args": [
    "0xDd2eCfc3b7ee40D53DB3DD29Ce4672e007D7c3d9"
  ],
  "numDeployments": 2,
  "solcInputHash": "d462a9dcdb6971be52d2adeeb4a755d1",
  "bytecode": "0x60a060405234801561001057600080fd5b506040516109dc3803806109dc83398101604081905261002f916100f3565b610038336100a3565b6001600160a01b0381166100925760405162461bcd60e51b815260206004820152601560248201527f496e76616c696420546f6b656e20416464726573730000000000000000000000604482015260640160405180910390fd5b6001600160a01b0316608052610123565b600080546001600160a01b038381166001600160a01b0319831681178455604051919092169283917f8be0079c531659141344cd1fd0a4f28419497f9722a3daafe3b4186f6b6457e09190a35050565b60006020828403121561010557600080fd5b81516001600160a01b038116811461011c57600080fd5b9392505050565b6080516108836101596000396000818160d501528181610179015281816102fc015281816103ef015261043d01526108836000f3fe608060405234801561001057600080fd5b50600436106100885760003560e01c8063715018a61161005b578063715018a6146101365780638da5cb5b1461013e578063beabacc81461014f578063f2fde38b1461016257600080fd5b8063150b7a021461008d57806346ccd959146100be57806347b7856f146100d3578063611a91911461010d575b600080fd5b6100a061009b3660046106c7565b610175565b6040516001600160e01b031990911681526020015b60405180910390f35b6100d16100cc3660046107a3565b610224565b005b7f00000000000000000000000000000000000000000000000000000000000000005b6040516001600160a01b0390911681526020016100b5565b6100f561011b3660046107a3565b6000908152600160205260409020546001600160a01b031690565b6100d16103d1565b6000546001600160a01b03166100f5565b6100d161015d3660046107bc565b6103e5565b6100d16101703660046107f8565b610572565b60007f00000000000000000000000000000000000000000000000000000000000000006001600160a01b031633036101cf57600083815260016020526040902080546001600160a01b0319166001600160a01b0387161790555b604080516001600160a01b0386811682529151859288169133917f7b6c87e404ae26c1b1af4ef543909d019bda843481ed81662eb1c0549f96f3c59181900360200190a4630a85bd0160e11b95945050505050565b6000818152600160205260409020546001600160a01b03166102985760405162461bcd60e51b815260206004820152602260248201527f546f6b656e496420686173206e6f74206265656e206465706f73697465642079604482015261195d60f21b60648201526084015b60405180910390fd5b6000818152600160205260409020546001600160a01b031633146102ed5760405162461bcd60e51b815260206004820152600c60248201526b155b985d5d1a1bdc9a5e995960a21b604482015260640161028f565b604051635c46a7ef60e11b81527f00000000000000000000000000000000000000000000000000000000000000006001600160a01b03169063b88d4fde9061033d9030903390869060040161081a565b600060405180830381600087803b15801561035757600080fd5b505af115801561036b573d6000803e3d6000fd5b505050600082815260016020526040902080546001600160a01b031916905550336001600160a01b03167f89d5d5a2342d9a38638dc4c8ff9ec15cc1a3b05745b9972d72dbd685b103f053826040516103c691815260200190565b60405180910390a250565b6103d96105eb565b6103e36000610645565b565b6103ed6105eb565b7f00000000000000000000000000000000000000000000000000000000000000006001600160a01b0316836001600160a01b0316036104c957604051635c46a7ef60e11b81526001600160a01b037f0000000000000000000000000000000000000000000000000000000000000000169063b88d4fde906104769030908690869060040161081a565b600060405180830381600087803b15801561049057600080fd5b505af11580156104a4573d6000803e3d6000fd5b505050600082815260016020526040902080546001600160a01b03191690555061052c565b604051635c46a7ef60e11b81526001600160a01b0384169063b88d4fde906104f99030908690869060040161081a565b600060405180830381600087803b15801561051357600080fd5b505af1158015610527573d6000803e3d6000fd5b505050505b80826001600160a01b0316846001600160a01b03167fe5f815dc84b8cecdfd4beedfc3f91ab5be7af100eca4e8fb11552b867995394f60405160405180910390a4505050565b61057a6105eb565b6001600160a01b0381166105df5760405162461bcd60e51b815260206004820152602660248201527f4f776e61626c653a206e6577206f776e657220697320746865207a65726f206160448201526564647265737360d01b606482015260840161028f565b6105e881610645565b50565b6000546001600160a01b031633146103e35760405162461bcd60e51b815260206004820181905260248201527f4f776e61626c653a2063616c6c6572206973206e6f7420746865206f776e6572604482015260640161028f565b600080546001600160a01b038381166001600160a01b0319831681178455604051919092169283917f8be0079c531659141344cd1fd0a4f28419497f9722a3daafe3b4186f6b6457e09190a35050565b80356001600160a01b03811681146106ac57600080fd5b919050565b634e487b7160e01b600052604160045260246000fd5b600080600080608085870312156106dd57600080fd5b6106e685610695565b93506106f460208601610695565b925060408501359150606085013567ffffffffffffffff8082111561071857600080fd5b818701915087601f83011261072c57600080fd5b81358181111561073e5761073e6106b1565b604051601f8201601f19908116603f01168101908382118183101715610766576107666106b1565b816040528281528a602084870101111561077f57600080fd5b82602086016020830137600060208483010152809550505050505092959194509250565b6000602082840312156107b557600080fd5b5035919050565b6000806000606084860312156107d157600080fd5b6107da84610695565b92506107e860208501610695565b9150604084013590509250925092565b60006020828403121561080a57600080fd5b61081382610695565b9392505050565b6001600160a01b039384168152919092166020820152604081019190915260806060820181905260009082015260a0019056fea2646970667358221220a42a1c6c4427405c1ff0750a03caf7548acc76c8af60bfea4b8f7eeaf0167ed564736f6c63430008110033",
  "devdoc": {
    "kind": "dev",
    "methods": {
      "owner()": {
        "details": "Returns the address of the current owner."
      },
      "renounceOwnership()": {
        "details": "Leaves the contract without owner. It will not be possible to call `onlyOwner` functions anymore. Can only be called by the current owner. NOTE: Renouncing ownership will leave the contract without an owner, thereby removing any functionality that is only available to the owner."
      },
      "transferOwnership(address)": {
        "details": "Transfers ownership of the contract to a new account (`newOwner`). Can only be called by the current owner."
      }
    },
    "version": 1
  },
  "userdoc": {
    "kind": "user",
    "methods": {},
    "version": 1
  },
  "storageLayout": {
    "storage": [
      {
        "astId": 7,
        "contract": "contracts/DTKHeroControlPool.sol:DTKHeroControlPool",
        "label": "_owner",
        "offset": 0,
        "slot": "0",
        "type": "t_address"
      },
      {
        "astId": 3547,
        "contract": "contracts/DTKHeroControlPool.sol:DTKHeroControlPool",
        "label": "_depositedDtkHero",
        "offset": 0,
        "slot": "1",
        "type": "t_mapping(t_uint256,t_address)"
      }
    ],
    "types": {
      "t_address": {
        "encoding": "inplace",
        "label": "address",
        "numberOfBytes": "20"
      },
      "t_mapping(t_uint256,t_address)": {
        "encoding": "mapping",
        "key": "t_uint256",
        "label": "mapping(uint256 => address)",
        "numberOfBytes": "32",
        "value": "t_address"
      },
      "t_uint256": {
        "encoding": "inplace",
        "label": "uint256",
        "numberOfBytes": "32"
      }
    }
  }
}