{
  "address": "0x681fB126a179706282dCd5a20440EF281EA9a3e5",
  "abi": [
    {
      "inputs": [
        {
          "internalType": "address",
          "name": "_authSigner",
          "type": "address"
        },
        {
          "internalType": "uint256",
          "name": "_maxSupply",
          "type": "uint256"
        }
      ],
      "stateMutability": "nonpayable",
      "type": "constructor"
    },
    {
      "anonymous": false,
      "inputs": [
        {
          "indexed": true,
          "internalType": "address",
          "name": "owner",
          "type": "address"
        },
        {
          "indexed": true,
          "internalType": "address",
          "name": "approved",
          "type": "address"
        },
        {
          "indexed": true,
          "internalType": "uint256",
          "name": "tokenId",
          "type": "uint256"
        }
      ],
      "name": "Approval",
      "type": "event"
    },
    {
      "anonymous": false,
      "inputs": [
        {
          "indexed": true,
          "internalType": "address",
          "name": "owner",
          "type": "address"
        },
        {
          "indexed": true,
          "internalType": "address",
          "name": "operator",
          "type": "address"
        },
        {
          "indexed": false,
          "internalType": "bool",
          "name": "approved",
          "type": "bool"
        }
      ],
      "name": "ApprovalForAll",
      "type": "event"
    },
    {
      "anonymous": false,
      "inputs": [
        {
          "indexed": true,
          "internalType": "address",
          "name": "owner",
          "type": "address"
        },
        {
          "indexed": true,
          "internalType": "uint256",
          "name": "tokenId",
          "type": "uint256"
        }
      ],
      "name": "Burn",
      "type": "event"
    },
    {
      "anonymous": false,
      "inputs": [
        {
          "indexed": true,
          "internalType": "address",
          "name": "owner",
          "type": "address"
        },
        {
          "indexed": true,
          "internalType": "uint256",
          "name": "tokenId",
          "type": "uint256"
        },
        {
          "indexed": true,
          "internalType": "uint256",
          "name": "nonce",
          "type": "uint256"
        }
      ],
      "name": "Deposit",
      "type": "event"
    },
    {
      "anonymous": false,
      "inputs": [
        {
          "indexed": true,
          "internalType": "address",
          "name": "minter",
          "type": "address"
        },
        {
          "indexed": true,
          "internalType": "uint256",
          "name": "tokenId",
          "type": "uint256"
        },
        {
          "indexed": true,
          "internalType": "uint256",
          "name": "nonce",
          "type": "uint256"
        }
      ],
      "name": "Mint",
      "type": "event"
    },
    {
      "anonymous": false,
      "inputs": [
        {
          "indexed": true,
          "internalType": "address",
          "name": "previousOwner",
          "type": "address"
        },
        {
          "indexed": true,
          "internalType": "address",
          "name": "newOwner",
          "type": "address"
        }
      ],
      "name": "OwnershipTransferred",
      "type": "event"
    },
    {
      "anonymous": false,
      "inputs": [
        {
          "indexed": false,
          "internalType": "address",
          "name": "account",
          "type": "address"
        }
      ],
      "name": "Paused",
      "type": "event"
    },
    {
      "anonymous": false,
      "inputs": [
        {
          "indexed": true,
          "internalType": "address",
          "name": "from",
          "type": "address"
        },
        {
          "indexed": true,
          "internalType": "address",
          "name": "to",
          "type": "address"
        },
        {
          "indexed": true,
          "internalType": "uint256",
          "name": "tokenId",
          "type": "uint256"
        }
      ],
      "name": "Transfer",
      "type": "event"
    },
    {
      "anonymous": false,
      "inputs": [
        {
          "indexed": false,
          "internalType": "address",
          "name": "account",
          "type": "address"
        }
      ],
      "name": "Unpaused",
      "type": "event"
    },
    {
      "anonymous": false,
      "inputs": [
        {
          "indexed": true,
          "internalType": "address",
          "name": "owner",
          "type": "address"
        },
        {
          "indexed": true,
          "internalType": "uint256",
          "name": "tokenId",
          "type": "uint256"
        },
        {
          "indexed": true,
          "internalType": "uint256",
          "name": "nonce",
          "type": "uint256"
        }
      ],
      "name": "Withdraw",
      "type": "event"
    },
    {
      "inputs": [
        {
          "internalType": "address",
          "name": "to",
          "type": "address"
        },
        {
          "internalType": "uint256",
          "name": "tokenId",
          "type": "uint256"
        }
      ],
      "name": "approve",
      "outputs": [],
      "stateMutability": "nonpayable",
      "type": "function"
    },
    {
      "inputs": [],
      "name": "authSigner",
      "outputs": [
        {
          "internalType": "address",
          "name": "",
          "type": "address"
        }
      ],
      "stateMutability": "view",
      "type": "function"
    },
    {
      "inputs": [
        {
          "internalType": "address",
          "name": "owner",
          "type": "address"
        }
      ],
      "name": "balanceOf",
      "outputs": [
        {
          "internalType": "uint256",
          "name": "",
          "type": "uint256"
        }
      ],
      "stateMutability": "view",
      "type": "function"
    },
    {
      "inputs": [
        {
          "internalType": "uint256",
          "name": "tokenId",
          "type": "uint256"
        }
      ],
      "name": "burn",
      "outputs": [],
      "stateMutability": "nonpayable",
      "type": "function"
    },
    {
      "inputs": [
        {
          "internalType": "uint256",
          "name": "tokenId",
          "type": "uint256"
        },
        {
          "internalType": "uint256",
          "name": "_nonce",
          "type": "uint256"
        },
        {
          "internalType": "bytes",
          "name": "sig",
          "type": "bytes"
        }
      ],
      "name": "deposit",
      "outputs": [],
      "stateMutability": "nonpayable",
      "type": "function"
    },
    {
      "inputs": [
        {
          "internalType": "uint256",
          "name": "tokenId",
          "type": "uint256"
        }
      ],
      "name": "getApproved",
      "outputs": [
        {
          "internalType": "address",
          "name": "",
          "type": "address"
        }
      ],
      "stateMutability": "view",
      "type": "function"
    },
    {
      "inputs": [
        {
          "internalType": "address",
          "name": "owner",
          "type": "address"
        },
        {
          "internalType": "address",
          "name": "operator",
          "type": "address"
        }
      ],
      "name": "isApprovedForAll",
      "outputs": [
        {
          "internalType": "bool",
          "name": "",
          "type": "bool"
        }
      ],
      "stateMutability": "view",
      "type": "function"
    },
    {
      "inputs": [],
      "name": "maxSupply",
      "outputs": [
        {
          "internalType": "uint256",
          "name": "",
          "type": "uint256"
        }
      ],
      "stateMutability": "view",
      "type": "function"
    },
    {
      "inputs": [
        {
          "internalType": "uint256",
          "name": "nonce",
          "type": "uint256"
        },
        {
          "internalType": "bytes",
          "name": "sig",
          "type": "bytes"
        }
      ],
      "name": "mint",
      "outputs": [],
      "stateMutability": "nonpayable",
      "type": "function"
    },
    {
      "inputs": [],
      "name": "name",
      "outputs": [
        {
          "internalType": "string",
          "name": "",
          "type": "string"
        }
      ],
      "stateMutability": "view",
      "type": "function"
    },
    {
      "inputs": [],
      "name": "owner",
      "outputs": [
        {
          "internalType": "address",
          "name": "",
          "type": "address"
        }
      ],
      "stateMutability": "view",
      "type": "function"
    },
    {
      "inputs": [
        {
          "internalType": "uint256",
          "name": "tokenId",
          "type": "uint256"
        }
      ],
      "name": "ownerOf",
      "outputs": [
        {
          "internalType": "address",
          "name": "",
          "type": "address"
        }
      ],
      "stateMutability": "view",
      "type": "function"
    },
    {
      "inputs": [],
      "name": "pause",
      "outputs": [],
      "stateMutability": "nonpayable",
      "type": "function"
    },
    {
      "inputs": [],
      "name": "paused",
      "outputs": [
        {
          "internalType": "bool",
          "name": "",
          "type": "bool"
        }
      ],
      "stateMutability": "view",
      "type": "function"
    },
    {
      "inputs": [],
      "name": "renounceOwnership",
      "outputs": [],
      "stateMutability": "nonpayable",
      "type": "function"
    },
    {
      "inputs": [
        {
          "internalType": "address",
          "name": "from",
          "type": "address"
        },
        {
          "internalType": "address",
          "name": "to",
          "type": "address"
        },
        {
          "internalType": "uint256",
          "name": "tokenId",
          "type": "uint256"
        }
      ],
      "name": "safeTransferFrom",
      "outputs": [],
      "stateMutability": "nonpayable",
      "type": "function"
    },
    {
      "inputs": [
        {
          "internalType": "address",
          "name": "from",
          "type": "address"
        },
        {
          "internalType": "address",
          "name": "to",
          "type": "address"
        },
        {
          "internalType": "uint256",
          "name": "tokenId",
          "type": "uint256"
        },
        {
          "internalType": "bytes",
          "name": "data",
          "type": "bytes"
        }
      ],
      "name": "safeTransferFrom",
      "outputs": [],
      "stateMutability": "nonpayable",
      "type": "function"
    },
    {
      "inputs": [
        {
          "internalType": "address",
          "name": "operator",
          "type": "address"
        },
        {
          "internalType": "bool",
          "name": "approved",
          "type": "bool"
        }
      ],
      "name": "setApprovalForAll",
      "outputs": [],
      "stateMutability": "nonpayable",
      "type": "function"
    },
    {
      "inputs": [
        {
          "internalType": "string",
          "name": "_uriPrefix",
          "type": "string"
        }
      ],
      "name": "setUriPrefix",
      "outputs": [],
      "stateMutability": "nonpayable",
      "type": "function"
    },
    {
      "inputs": [
        {
          "internalType": "string",
          "name": "_uriSuffix",
          "type": "string"
        }
      ],
      "name": "setUriSuffix",
      "outputs": [],
      "stateMutability": "nonpayable",
      "type": "function"
    },
    {
      "inputs": [
        {
          "internalType": "bytes4",
          "name": "interfaceId",
          "type": "bytes4"
        }
      ],
      "name": "supportsInterface",
      "outputs": [
        {
          "internalType": "bool",
          "name": "",
          "type": "bool"
        }
      ],
      "stateMutability": "view",
      "type": "function"
    },
    {
      "inputs": [],
      "name": "symbol",
      "outputs": [
        {
          "internalType": "string",
          "name": "",
          "type": "string"
        }
      ],
      "stateMutability": "view",
      "type": "function"
    },
    {
      "inputs": [
        {
          "internalType": "uint256",
          "name": "tokenId",
          "type": "uint256"
        }
      ],
      "name": "tokenURI",
      "outputs": [
        {
          "internalType": "string",
          "name": "",
          "type": "string"
        }
      ],
      "stateMutability": "view",
      "type": "function"
    },
    {
      "inputs": [
        {
          "internalType": "address",
          "name": "owner",
          "type": "address"
        }
      ],
      "name": "tokensOfOwner",
      "outputs": [
        {
          "components": [
            {
              "internalType": "uint256",
              "name": "tokenId",
              "type": "uint256"
            },
            {
              "internalType": "bool",
              "name": "deposited",
              "type": "bool"
            }
          ],
          "internalType": "struct TokenInfo[]",
          "name": "",
          "type": "tuple[]"
        }
      ],
      "stateMutability": "view",
      "type": "function"
    },
    {
      "inputs": [],
      "name": "totalSupply",
      "outputs": [
        {
          "internalType": "uint256",
          "name": "",
          "type": "uint256"
        }
      ],
      "stateMutability": "view",
      "type": "function"
    },
    {
      "inputs": [
        {
          "internalType": "address",
          "name": "from",
          "type": "address"
        },
        {
          "internalType": "address",
          "name": "to",
          "type": "address"
        },
        {
          "internalType": "uint256",
          "name": "tokenId",
          "type": "uint256"
        }
      ],
      "name": "transferFrom",
      "outputs": [],
      "stateMutability": "nonpayable",
      "type": "function"
    },
    {
      "inputs": [
        {
          "internalType": "address",
          "name": "newOwner",
          "type": "address"
        }
      ],
      "name": "transferOwnership",
      "outputs": [],
      "stateMutability": "nonpayable",
      "type": "function"
    },
    {
      "inputs": [],
      "name": "unpause",
      "outputs": [],
      "stateMutability": "nonpayable",
      "type": "function"
    },
    {
      "inputs": [],
      "name": "uriPrefix",
      "outputs": [
        {
          "internalType": "string",
          "name": "",
          "type": "string"
        }
      ],
      "stateMutability": "view",
      "type": "function"
    },
    {
      "inputs": [],
      "name": "uriSuffix",
      "outputs": [
        {
          "internalType": "string",
          "name": "",
          "type": "string"
        }
      ],
      "stateMutability": "view",
      "type": "function"
    },
    {
      "inputs": [
        {
          "internalType": "uint256",
          "name": "tokenId",
          "type": "uint256"
        },
        {
          "internalType": "uint256",
          "name": "_nonce",
          "type": "uint256"
        },
        {
          "internalType": "bytes",
          "name": "sig",
          "type": "bytes"
        }
      ],
      "name": "withdraw",
      "outputs": [],
      "stateMutability": "nonpayable",
      "type": "function"
    }
  ],
  "transactionHash": "0x7d9bcbcc6264e1fd9181deab11b1ac1474fe025c7e3a23d6eb694ceb808c38f7",
  "args": [
    "0x7d14F396d347C960bC2774141D51DA59Be408F71",
    3000
  ],
  "numDeployments": 2,
  "solcInputHash": "3160a4fc1e31e9de6f54fe75521272e9",
  "bytecode": "0x60a060405260006080908152600c906200001a908262000258565b50604080516020810190915260008152600d9062000039908262000258565b503480156200004757600080fd5b50604051620029fe380380620029fe8339810160408190526200006a9162000324565b6040518060400160405280600e81526020016d090cae4de9af2e6e8cae4f284def60931b815250604051806040016040528060038152602001622426a160e91b8152508160009081620000be919062000258565b506001620000cd828262000258565b50506006805460ff1916905550620000e53362000159565b6001600160a01b0382166200012f5760405162461bcd60e51b815260206004820152600c60248201526b24b73b30b634b21030b2323960a11b604482015260640160405180910390fd5b600980546001600160a01b0319166001600160a01b03939093169290921790915560085562000360565b600680546001600160a01b03838116610100818102610100600160a81b031985161790945560405193909204169182907f8be0079c531659141344cd1fd0a4f28419497f9722a3daafe3b4186f6b6457e090600090a35050565b634e487b7160e01b600052604160045260246000fd5b600181811c90821680620001de57607f821691505b602082108103620001ff57634e487b7160e01b600052602260045260246000fd5b50919050565b601f8211156200025357600081815260208120601f850160051c810160208610156200022e5750805b601f850160051c820191505b818110156200024f578281556001016200023a565b5050505b505050565b81516001600160401b03811115620002745762000274620001b3565b6200028c81620002858454620001c9565b8462000205565b602080601f831160018114620002c45760008415620002ab5750858301515b600019600386901b1c1916600185901b1785556200024f565b600085815260208120601f198616915b82811015620002f557888601518255948401946001909101908401620002d4565b5085821015620003145787850151600019600388901b60f8161c191681555b5050505050600190811b01905550565b600080604083850312156200033857600080fd5b82516001600160a01b03811681146200035057600080fd5b6020939093015192949293505050565b61268e80620003706000396000f3fe608060405234801561001057600080fd5b50600436106101e55760003560e01c8063715018a61161010f578063aa0b7db7116100a2578063d5abeb0111610071578063d5abeb01146103e5578063db7fd408146103ee578063e985e9c514610401578063f2fde38b1461041457600080fd5b8063aa0b7db714610399578063b42348ac146103ac578063b88d4fde146103bf578063c87b56dd146103d257600080fd5b80638462151c116100de5780638462151c146103485780638da5cb5b1461036857806395d89b411461037e578063a22cb4651461038657600080fd5b8063715018a614610312578063744fb6ca1461031a5780637ec4a6591461032d5780638456cb591461034057600080fd5b80633f4ba83a116101875780635c975abb116101565780635c975abb146102d957806362b99ad4146102e45780636352211e146102ec57806370a08231146102ff57600080fd5b80633f4ba83a146102a357806342842e0e146102ab57806342966c68146102be5780635503a0e8146102d157600080fd5b8063095ea7b3116101c3578063095ea7b31461025257806316ba10e01461026757806318160ddd1461027a57806323b872dd1461029057600080fd5b806301ffc9a7146101ea57806306fdde0314610212578063081812fc14610227575b600080fd5b6101fd6101f8366004611de5565b610427565b60405190151581526020015b60405180910390f35b61021a610479565b6040516102099190611e52565b61023a610235366004611e65565b61050b565b6040516001600160a01b039091168152602001610209565b610265610260366004611e9a565b610532565b005b610265610275366004611f50565b61064c565b610282610664565b604051908152602001610209565b61026561029e366004611f99565b610674565b6102656106ae565b6102656102b9366004611f99565b6106c0565b6102656102cc366004611e65565b6106fa565b61021a6107a2565b60065460ff166101fd565b61021a610830565b61023a6102fa366004611e65565b61083d565b61028261030d366004611fd5565b61089d565b610265610923565b610265610328366004612010565b610935565b61026561033b366004611f50565b610adf565b610265610af3565b61035b610356366004611fd5565b610b03565b6040516102099190612060565b60065461010090046001600160a01b031661023a565b61021a610c62565b6102656103943660046120b1565b610c71565b6102656103a7366004612010565b610c7c565b60095461023a906001600160a01b031681565b6102656103cd3660046120ed565b610df9565b61021a6103e0366004611e65565b610e3a565b61028260085481565b6102656103fc366004612155565b610ea4565b6101fd61040f36600461219c565b611019565b610265610422366004611fd5565b611047565b60006001600160e01b031982166380ac58cd60e01b148061045857506001600160e01b03198216635b5e139f60e01b145b8061047357506301ffc9a760e01b6001600160e01b03198316145b92915050565b606060008054610488906121cf565b80601f01602080910402602001604051908101604052809291908181526020018280546104b4906121cf565b80156105015780601f106104d657610100808354040283529160200191610501565b820191906000526020600020905b8154815290600101906020018083116104e457829003601f168201915b5050505050905090565b6000610516826110c0565b506000908152600460205260409020546001600160a01b031690565b600061053d8261083d565b9050806001600160a01b0316836001600160a01b0316036105af5760405162461bcd60e51b815260206004820152602160248201527f4552433732313a20617070726f76616c20746f2063757272656e74206f776e656044820152603960f91b60648201526084015b60405180910390fd5b336001600160a01b03821614806105cb57506105cb8133611019565b61063d5760405162461bcd60e51b815260206004820152603e60248201527f4552433732313a20617070726f76652063616c6c6572206973206e6f7420746f60448201527f6b656e206f776e6572206e6f7220617070726f76656420666f7220616c6c000060648201526084016105a6565b610647838361111f565b505050565b61065461118d565b600d6106608282612257565b5050565b600061066f60075490565b905090565b6000818152600b602052604090205460ff16156106a35760405162461bcd60e51b81526004016105a690612317565b6106478383836111ed565b6106b661118d565b6106be611264565b565b6000818152600b602052604090205460ff16156106ef5760405162461bcd60e51b81526004016105a690612317565b6106478383836112b6565b806107036112d1565b61070c816110c0565b610717335b82611317565b6107335760405162461bcd60e51b81526004016105a69061234e565b6000818152600b602052604090205460ff16156107625760405162461bcd60e51b81526004016105a690612317565b61076b82611376565b604051829033907fcc16f5dbb4873280815c1ee09dbd06736cffcc184412cf7a71a0fdb75d397ca590600090a3610660600761141d565b600d80546107af906121cf565b80601f01602080910402602001604051908101604052809291908181526020018280546107db906121cf565b80156108285780601f106107fd57610100808354040283529160200191610828565b820191906000526020600020905b81548152906001019060200180831161080b57829003601f168201915b505050505081565b600c80546107af906121cf565b6000818152600260205260408120546001600160a01b0316806104735760405162461bcd60e51b8152602060048201526018602482015277115490cdcc8c4e881a5b9d985b1a59081d1bdad95b88125160421b60448201526064016105a6565b60006001600160a01b0382166109075760405162461bcd60e51b815260206004820152602960248201527f4552433732313a2061646472657373207a65726f206973206e6f7420612076616044820152683634b21037bbb732b960b91b60648201526084016105a6565b506001600160a01b031660009081526003602052604090205490565b61092b61118d565b6106be6000611474565b823383836109416112d1565b61094a846110c0565b6109548385611317565b6109705760405162461bcd60e51b81526004016105a69061234e565b6000848152600b602052604090205460ff166109ce5760405162461bcd60e51b815260206004820152601c60248201527f546f6b656e20686173206e6f74206265656e206465706f73697465640000000060448201526064016105a6565b6001600160a01b0383166000908152600a6020908152604080832085845290915290205460ff1615610a125760405162461bcd60e51b81526004016105a690612374565b610a546040518060400160405280601f81526020017f77697468647261772875696e743235362c75696e743235362c62797465732900815250848685856114ce565b610a705760405162461bcd60e51b81526004016105a6906123a4565b336000818152600a602090815260408083208a845282528083208054600160ff19918216179091558b8452600b90925280832080549092169091555188928a9290917ff279e6a1f5e320cca91135676d9cb6e44ca8a08c0b88342bcdb1144f6511b5689190a450505050505050565b610ae761118d565b600c6106608282612257565b610afb61118d565b6106be61157b565b60606000610b108361089d565b905060008167ffffffffffffffff811115610b2d57610b2d611ec4565b604051908082528060200260200182016040528015610b7257816020015b6040805180820190915260008082526020820152815260200190600190039081610b4b5790505b509050600160005b8381108015610b905750610b8c610664565b8211155b15610c58576000828152600260205260409020546001600160a01b031615610c46576000610bbd8361083d565b9050866001600160a01b0316816001600160a01b031603610c445782848381518110610beb57610beb6123cf565b602090810291909101810151919091526000848152600b9091526040902054845160ff90911690859084908110610c2457610c246123cf565b60209081029190910181015191151591015281610c40816123fb565b9250505b505b81610c50816123fb565b925050610b7a565b5090949350505050565b606060018054610488906121cf565b6106603383836115b8565b82338383610c886112d1565b610c91846110c0565b610c9b8385611317565b610cb75760405162461bcd60e51b81526004016105a69061234e565b6000848152600b602052604090205460ff1615610ce65760405162461bcd60e51b81526004016105a690612317565b6001600160a01b0383166000908152600a6020908152604080832085845290915290205460ff1615610d2a5760405162461bcd60e51b81526004016105a690612374565b610d6c6040518060400160405280601e81526020017f6465706f7369742875696e743235362c75696e743235362c6279746573290000815250848685856114ce565b610d885760405162461bcd60e51b81526004016105a6906123a4565b336000818152600a602090815260408083208a845282528083208054600160ff1991821681179092558c8552600b9093528184208054909316179091555188928a9290917f90890809c654f11d6e72a28fa60149770a0d11ec6c92319d6ceb2bb0a4ea1a159190a450505050505050565b6000828152600b602052604090205460ff1615610e285760405162461bcd60e51b81526004016105a690612317565b610e3484848484611686565b50505050565b6060610e45826110c0565b6000610e4f6116b9565b90506000815111610e6f5760405180602001604052806000815250610e9d565b80610e79846116c8565b600d604051602001610e8d93929190612414565b6040516020818303038152906040525b9392505050565b338282610eaf6112d1565b6001600160a01b0383166000908152600a6020908152604080832085845290915290205460ff1615610ef35760405162461bcd60e51b81526004016105a690612374565b610f346040518060400160405280601b81526020017f6d696e742875696e743235362c75696e743235362c62797465732900000000008152508484846117c9565b610f505760405162461bcd60e51b81526004016105a6906123a4565b600854600754610f619060016124b4565b1115610fa65760405162461bcd60e51b81526020600482015260146024820152734d617820737570706c792065786365656465642160601b60448201526064016105a6565b610fb233600754611813565b336000818152600a60209081526040808320898452909152808220805460ff191660011790556007549051889391927f4c209b5fc8ad50758f13e2e1088ba56a560dff690a1c6fef26394f4c03821c4f91a4611012600780546001019055565b5050505050565b6001600160a01b03918216600090815260056020908152604080832093909416825291909152205460ff1690565b61104f61118d565b6001600160a01b0381166110b45760405162461bcd60e51b815260206004820152602660248201527f4f776e61626c653a206e6577206f776e657220697320746865207a65726f206160448201526564647265737360d01b60648201526084016105a6565b6110bd81611474565b50565b6000818152600260205260409020546001600160a01b03166110bd5760405162461bcd60e51b8152602060048201526018602482015277115490cdcc8c4e881a5b9d985b1a59081d1bdad95b88125160421b60448201526064016105a6565b600081815260046020526040902080546001600160a01b0319166001600160a01b03841690811790915581906111548261083d565b6001600160a01b03167f8c5be1e5ebec7d5bd14f71427d1e84f3dd0314c0f7b2291e5b200ac8c7c3b92560405160405180910390a45050565b6006546001600160a01b036101009091041633146106be5760405162461bcd60e51b815260206004820181905260248201527f4f776e61626c653a2063616c6c6572206973206e6f7420746865206f776e657260448201526064016105a6565b6111f633610711565b6112595760405162461bcd60e51b815260206004820152602e60248201527f4552433732313a2063616c6c6572206973206e6f7420746f6b656e206f776e6560448201526d1c881b9bdc88185c1c1c9bdd995960921b60648201526084016105a6565b61064783838361182d565b61126c6119d4565b6006805460ff191690557f5db9ee0a495bf2e6ff9c91a7834c1ba4fdd244a5e8aa4e537bd38aeae4b073aa335b6040516001600160a01b03909116815260200160405180910390a1565b61064783838360405180602001604052806000815250610df9565b60065460ff16156106be5760405162461bcd60e51b815260206004820152601060248201526f14185d5cd8589b194e881c185d5cd95960821b60448201526064016105a6565b6000806113238361083d565b9050806001600160a01b0316846001600160a01b0316148061134a575061134a8185611019565b8061136e5750836001600160a01b03166113638461050b565b6001600160a01b0316145b949350505050565b60006113818261083d565b905061138f81600084611a1d565b61139a60008361111f565b6001600160a01b03811660009081526003602052604081208054600192906113c39084906124c7565b909155505060008281526002602052604080822080546001600160a01b0319169055518391906001600160a01b038416907fddf252ad1be2c89b69c2b068fc378daa952ba7f163c4a11628f55a4df523b3ef908390a45050565b80548061146c5760405162461bcd60e51b815260206004820152601b60248201527f436f756e7465723a2064656372656d656e74206f766572666c6f77000000000060448201526064016105a6565b600019019055565b600680546001600160a01b03838116610100818102610100600160a81b031985161790945560405193909204169182907f8be0079c531659141344cd1fd0a4f28419497f9722a3daafe3b4186f6b6457e090600090a35050565b60008061154d87308888886040516020016114ed9594939291906124da565b60408051601f1981840301815282825280516020918201207f19457468657265756d205369676e6564204d6573736167653a0a33320000000084830152603c8085019190915282518085039091018152605c909301909152815191012090565b6009549091506001600160a01b03166115668285611a28565b6001600160a01b031614979650505050505050565b6115836112d1565b6006805460ff191660011790557f62e78cea01bee320cd4e420270b5ea74000d11b0c9f74754ebdbfc544b05a2586112993390565b816001600160a01b0316836001600160a01b0316036116195760405162461bcd60e51b815260206004820152601960248201527f4552433732313a20617070726f766520746f2063616c6c65720000000000000060448201526064016105a6565b6001600160a01b03838116600081815260056020908152604080832094871680845294825291829020805460ff191686151590811790915591519182527f17307eab39ab6107e8899845ad3d59bd9653f200f220920489ca2b5937696c31910160405180910390a3505050565b61169184848461182d565b61169d84848484611aa7565b610e345760405162461bcd60e51b81526004016105a690612528565b6060600c8054610488906121cf565b6060816000036116ef5750506040805180820190915260018152600360fc1b602082015290565b8160005b81156117195780611703816123fb565b91506117129050600a83612590565b91506116f3565b60008167ffffffffffffffff81111561173457611734611ec4565b6040519080825280601f01601f19166020018201604052801561175e576020820181803683370190505b5090505b841561136e576117736001836124c7565b9150611780600a866125a4565b61178b9060306124b4565b60f81b8183815181106117a0576117a06123cf565b60200101906001600160f81b031916908160001a9053506117c2600a86612590565b9450611762565b6000806117e6863087876040516020016114ed94939291906125b8565b6009549091506001600160a01b03166117ff8285611a28565b6001600160a01b0316149695505050505050565b610660828260405180602001604052806000815250611ba5565b826001600160a01b03166118408261083d565b6001600160a01b0316146118a45760405162461bcd60e51b815260206004820152602560248201527f4552433732313a207472616e736665722066726f6d20696e636f72726563742060448201526437bbb732b960d91b60648201526084016105a6565b6001600160a01b0382166119065760405162461bcd60e51b8152602060048201526024808201527f4552433732313a207472616e7366657220746f20746865207a65726f206164646044820152637265737360e01b60648201526084016105a6565b611911838383611a1d565b61191c60008261111f565b6001600160a01b03831660009081526003602052604081208054600192906119459084906124c7565b90915550506001600160a01b03821660009081526003602052604081208054600192906119739084906124b4565b909155505060008181526002602052604080822080546001600160a01b0319166001600160a01b0386811691821790925591518493918716917fddf252ad1be2c89b69c2b068fc378daa952ba7f163c4a11628f55a4df523b3ef91a4505050565b60065460ff166106be5760405162461bcd60e51b815260206004820152601460248201527314185d5cd8589b194e881b9bdd081c185d5cd95960621b60448201526064016105a6565b610647838383611bd8565b600080600080611a3785611c3f565b6040805160008152602081018083528b905260ff8516918101919091526060810183905260808101829052929550909350915060019060a0016020604051602081039080840390855afa158015611a92573d6000803e3d6000fd5b5050604051601f190151979650505050505050565b60006001600160a01b0384163b15611b9d57604051630a85bd0160e11b81526001600160a01b0385169063150b7a0290611aeb9033908990889088906004016125fe565b6020604051808303816000875af1925050508015611b26575060408051601f3d908101601f19168201909252611b239181019061263b565b60015b611b83573d808015611b54576040519150601f19603f3d011682016040523d82523d6000602084013e611b59565b606091505b508051600003611b7b5760405162461bcd60e51b81526004016105a690612528565b805181602001fd5b6001600160e01b031916630a85bd0160e11b14905061136e565b50600161136e565b611baf8383611c81565b611bbc6000848484611aa7565b6106475760405162461bcd60e51b81526004016105a690612528565b60065460ff16156106475760405162461bcd60e51b815260206004820152602b60248201527f4552433732315061757361626c653a20746f6b656e207472616e73666572207760448201526a1a1a5b19481c185d5cd95960aa1b60648201526084016105a6565b60008060008351604114611c655760405162461bcd60e51b81526004016105a6906123a4565b5050506020810151604082015160609092015160001a92909190565b6001600160a01b038216611cd75760405162461bcd60e51b815260206004820181905260248201527f4552433732313a206d696e7420746f20746865207a65726f206164647265737360448201526064016105a6565b6000818152600260205260409020546001600160a01b031615611d3c5760405162461bcd60e51b815260206004820152601c60248201527f4552433732313a20746f6b656e20616c7265616479206d696e7465640000000060448201526064016105a6565b611d4860008383611a1d565b6001600160a01b0382166000908152600360205260408120805460019290611d719084906124b4565b909155505060008181526002602052604080822080546001600160a01b0319166001600160a01b03861690811790915590518392907fddf252ad1be2c89b69c2b068fc378daa952ba7f163c4a11628f55a4df523b3ef908290a45050565b6001600160e01b0319811681146110bd57600080fd5b600060208284031215611df757600080fd5b8135610e9d81611dcf565b60005b83811015611e1d578181015183820152602001611e05565b50506000910152565b60008151808452611e3e816020860160208601611e02565b601f01601f19169290920160200192915050565b602081526000610e9d6020830184611e26565b600060208284031215611e7757600080fd5b5035919050565b80356001600160a01b0381168114611e9557600080fd5b919050565b60008060408385031215611ead57600080fd5b611eb683611e7e565b946020939093013593505050565b634e487b7160e01b600052604160045260246000fd5b600067ffffffffffffffff80841115611ef557611ef5611ec4565b604051601f8501601f19908116603f01168101908282118183101715611f1d57611f1d611ec4565b81604052809350858152868686011115611f3657600080fd5b858560208301376000602087830101525050509392505050565b600060208284031215611f6257600080fd5b813567ffffffffffffffff811115611f7957600080fd5b8201601f81018413611f8a57600080fd5b61136e84823560208401611eda565b600080600060608486031215611fae57600080fd5b611fb784611e7e565b9250611fc560208501611e7e565b9150604084013590509250925092565b600060208284031215611fe757600080fd5b610e9d82611e7e565b600082601f83011261200157600080fd5b610e9d83833560208501611eda565b60008060006060848603121561202557600080fd5b8335925060208401359150604084013567ffffffffffffffff81111561204a57600080fd5b61205686828701611ff0565b9150509250925092565b602080825282518282018190526000919060409081850190868401855b828110156120a457815180518552860151151586850152928401929085019060010161207d565b5091979650505050505050565b600080604083850312156120c457600080fd5b6120cd83611e7e565b9150602083013580151581146120e257600080fd5b809150509250929050565b6000806000806080858703121561210357600080fd5b61210c85611e7e565b935061211a60208601611e7e565b925060408501359150606085013567ffffffffffffffff81111561213d57600080fd5b61214987828801611ff0565b91505092959194509250565b6000806040838503121561216857600080fd5b82359150602083013567ffffffffffffffff81111561218657600080fd5b61219285828601611ff0565b9150509250929050565b600080604083850312156121af57600080fd5b6121b883611e7e565b91506121c660208401611e7e565b90509250929050565b600181811c908216806121e357607f821691505b60208210810361220357634e487b7160e01b600052602260045260246000fd5b50919050565b601f82111561064757600081815260208120601f850160051c810160208610156122305750805b601f850160051c820191505b8181101561224f5782815560010161223c565b505050505050565b815167ffffffffffffffff81111561227157612271611ec4565b6122858161227f84546121cf565b84612209565b602080601f8311600181146122ba57600084156122a25750858301515b600019600386901b1c1916600185901b17855561224f565b600085815260208120601f198616915b828110156122e9578886015182559484019460019091019084016122ca565b50858210156123075787850151600019600388901b60f8161c191681555b5050505050600190811b01905550565b60208082526018908201527f546f6b656e20686173206265656e206465706f73697465640000000000000000604082015260600190565b6020808252600c908201526b155b985d5d1a1bdc9a5e995960a21b604082015260600190565b6020808252601690820152751b9bdb98d948185b1c9958591e4818dbdb9cdd5b595960521b604082015260600190565b602080825260119082015270496e76616c6964207369676e617475726560781b604082015260600190565b634e487b7160e01b600052603260045260246000fd5b634e487b7160e01b600052601160045260246000fd5b60006001820161240d5761240d6123e5565b5060010190565b6000845160206124278285838a01611e02565b85519184019161243a8184848a01611e02565b855492019160009061244b816121cf565b600182811680156124635760018114612478576124a4565b60ff19841687528215158302870194506124a4565b896000528560002060005b8481101561249c57815489820152908301908701612483565b505082870194505b50929a9950505050505050505050565b80820180821115610473576104736123e5565b81810381811115610473576104736123e5565b600086516124ec818460208b01611e02565b6bffffffffffffffffffffffff19606097881b8116919093019081529490951b1660148401526028830191909152604882015260680192915050565b60208082526032908201527f4552433732313a207472616e7366657220746f206e6f6e20455243373231526560408201527131b2b4bb32b91034b6b83632b6b2b73a32b960711b606082015260800190565b634e487b7160e01b600052601260045260246000fd5b60008261259f5761259f61257a565b500490565b6000826125b3576125b361257a565b500690565b600085516125ca818460208a01611e02565b6bffffffffffffffffffffffff19606096871b8116919093019081529390941b166014830152602882015260480192915050565b6001600160a01b038581168252841660208201526040810183905260806060820181905260009061263190830184611e26565b9695505050505050565b60006020828403121561264d57600080fd5b8151610e9d81611dcf56fea264697066735822122026bfea7e09db3ed78a789c325cf1683e74447c14d92177fcd1537a5dde20544a64736f6c63430008110033",
  "devdoc": {
    "kind": "dev",
    "methods": {
      "approve(address,uint256)": {
        "details": "See {IERC721-approve}."
      },
      "balanceOf(address)": {
        "details": "See {IERC721-balanceOf}."
      },
      "getApproved(uint256)": {
        "details": "See {IERC721-getApproved}."
      },
      "isApprovedForAll(address,address)": {
        "details": "See {IERC721-isApprovedForAll}."
      },
      "name()": {
        "details": "See {IERC721Metadata-name}."
      },
      "owner()": {
        "details": "Returns the address of the current owner."
      },
      "ownerOf(uint256)": {
        "details": "See {IERC721-ownerOf}."
      },
      "paused()": {
        "details": "Returns true if the contract is paused, and false otherwise."
      },
      "renounceOwnership()": {
        "details": "Leaves the contract without owner. It will not be possible to call `onlyOwner` functions anymore. Can only be called by the current owner. NOTE: Renouncing ownership will leave the contract without an owner, thereby removing any functionality that is only available to the owner."
      },
      "safeTransferFrom(address,address,uint256)": {
        "details": "See {IERC721-safeTransferFrom}."
      },
      "safeTransferFrom(address,address,uint256,bytes)": {
        "details": "See {IERC721-safeTransferFrom}."
      },
      "setApprovalForAll(address,bool)": {
        "details": "See {IERC721-setApprovalForAll}."
      },
      "supportsInterface(bytes4)": {
        "details": "See {IERC165-supportsInterface}."
      },
      "symbol()": {
        "details": "See {IERC721Metadata-symbol}."
      },
      "tokenURI(uint256)": {
        "details": "See {IERC721Metadata-tokenURI}."
      },
      "transferFrom(address,address,uint256)": {
        "details": "See {IERC721-transferFrom}."
      },
      "transferOwnership(address)": {
        "details": "Transfers ownership of the contract to a new account (`newOwner`). Can only be called by the current owner."
      }
    },
    "version": 1
  },
  "userdoc": {
    "kind": "user",
    "methods": {},
    "version": 1
  },
  "storageLayout": {
    "storage": [
      {
        "astId": 246,
        "contract": "contracts/DTKHero.sol:DTKHero",
        "label": "_name",
        "offset": 0,
        "slot": "0",
        "type": "t_string_storage"
      },
      {
        "astId": 248,
        "contract": "contracts/DTKHero.sol:DTKHero",
        "label": "_symbol",
        "offset": 0,
        "slot": "1",
        "type": "t_string_storage"
      },
      {
        "astId": 252,
        "contract": "contracts/DTKHero.sol:DTKHero",
        "label": "_owners",
        "offset": 0,
        "slot": "2",
        "type": "t_mapping(t_uint256,t_address)"
      },
      {
        "astId": 256,
        "contract": "contracts/DTKHero.sol:DTKHero",
        "label": "_balances",
        "offset": 0,
        "slot": "3",
        "type": "t_mapping(t_address,t_uint256)"
      },
      {
        "astId": 260,
        "contract": "contracts/DTKHero.sol:DTKHero",
        "label": "_tokenApprovals",
        "offset": 0,
        "slot": "4",
        "type": "t_mapping(t_uint256,t_address)"
      },
      {
        "astId": 266,
        "contract": "contracts/DTKHero.sol:DTKHero",
        "label": "_operatorApprovals",
        "offset": 0,
        "slot": "5",
        "type": "t_mapping(t_address,t_mapping(t_address,t_bool))"
      },
      {
        "astId": 130,
        "contract": "contracts/DTKHero.sol:DTKHero",
        "label": "_paused",
        "offset": 0,
        "slot": "6",
        "type": "t_bool"
      },
      {
        "astId": 7,
        "contract": "contracts/DTKHero.sol:DTKHero",
        "label": "_owner",
        "offset": 1,
        "slot": "6",
        "type": "t_address"
      },
      {
        "astId": 1965,
        "contract": "contracts/DTKHero.sol:DTKHero",
        "label": "supply",
        "offset": 0,
        "slot": "7",
        "type": "t_struct(Counter)1608_storage"
      },
      {
        "astId": 1967,
        "contract": "contracts/DTKHero.sol:DTKHero",
        "label": "maxSupply",
        "offset": 0,
        "slot": "8",
        "type": "t_uint256"
      },
      {
        "astId": 1969,
        "contract": "contracts/DTKHero.sol:DTKHero",
        "label": "authSigner",
        "offset": 0,
        "slot": "9",
        "type": "t_address"
      },
      {
        "astId": 1975,
        "contract": "contracts/DTKHero.sol:DTKHero",
        "label": "sigNonces",
        "offset": 0,
        "slot": "10",
        "type": "t_mapping(t_address,t_mapping(t_uint256,t_bool))"
      },
      {
        "astId": 1979,
        "contract": "contracts/DTKHero.sol:DTKHero",
        "label": "depositedTokens",
        "offset": 0,
        "slot": "11",
        "type": "t_mapping(t_uint256,t_bool)"
      },
      {
        "astId": 1982,
        "contract": "contracts/DTKHero.sol:DTKHero",
        "label": "uriPrefix",
        "offset": 0,
        "slot": "12",
        "type": "t_string_storage"
      },
      {
        "astId": 1985,
        "contract": "contracts/DTKHero.sol:DTKHero",
        "label": "uriSuffix",
        "offset": 0,
        "slot": "13",
        "type": "t_string_storage"
      }
    ],
    "types": {
      "t_address": {
        "encoding": "inplace",
        "label": "address",
        "numberOfBytes": "20"
      },
      "t_bool": {
        "encoding": "inplace",
        "label": "bool",
        "numberOfBytes": "1"
      },
      "t_mapping(t_address,t_bool)": {
        "encoding": "mapping",
        "key": "t_address",
        "label": "mapping(address => bool)",
        "numberOfBytes": "32",
        "value": "t_bool"
      },
      "t_mapping(t_address,t_mapping(t_address,t_bool))": {
        "encoding": "mapping",
        "key": "t_address",
        "label": "mapping(address => mapping(address => bool))",
        "numberOfBytes": "32",
        "value": "t_mapping(t_address,t_bool)"
      },
      "t_mapping(t_address,t_mapping(t_uint256,t_bool))": {
        "encoding": "mapping",
        "key": "t_address",
        "label": "mapping(address => mapping(uint256 => bool))",
        "numberOfBytes": "32",
        "value": "t_mapping(t_uint256,t_bool)"
      },
      "t_mapping(t_address,t_uint256)": {
        "encoding": "mapping",
        "key": "t_address",
        "label": "mapping(address => uint256)",
        "numberOfBytes": "32",
        "value": "t_uint256"
      },
      "t_mapping(t_uint256,t_address)": {
        "encoding": "mapping",
        "key": "t_uint256",
        "label": "mapping(uint256 => address)",
        "numberOfBytes": "32",
        "value": "t_address"
      },
      "t_mapping(t_uint256,t_bool)": {
        "encoding": "mapping",
        "key": "t_uint256",
        "label": "mapping(uint256 => bool)",
        "numberOfBytes": "32",
        "value": "t_bool"
      },
      "t_string_storage": {
        "encoding": "bytes",
        "label": "string",
        "numberOfBytes": "32"
      },
      "t_struct(Counter)1608_storage": {
        "encoding": "inplace",
        "label": "struct Counters.Counter",
        "members": [
          {
            "astId": 1607,
            "contract": "contracts/DTKHero.sol:DTKHero",
            "label": "_value",
            "offset": 0,
            "slot": "0",
            "type": "t_uint256"
          }
        ],
        "numberOfBytes": "32"
      },
      "t_uint256": {
        "encoding": "inplace",
        "label": "uint256",
        "numberOfBytes": "32"
      }
    }
  }
}